:03000000020A21D0
:0100030032CA
:01000B0032C2
:0100130032BA
:03001B0002097067
:0100230032AA
:03002B000209C601
:10002E00C00078B10000D8FCD00022C000C0017919
:10003E002D78A6D8FED9FADAF6D001D00022D2B3A6
:10004E0012002EC2B322A2E792B7A2E692B6A2E5A2
:10005E0092B5A2E492B412004C12002EA2E392B713
:10006E00A2E292B6A2E192B5A2E092B412004C22A4
:10007E00D2B2020054C2B2020054C2B374331200A0
:10008E008374331200837432120083742812008337
:10009E00740C1200837401120083C0027A021200E3
:1000AE0039D00222E493600612007EA380F6224429
:1000BE00404480020083C0E0E8C4540F4430120074
:1000CE007EE8540F443012007ED0E022C0E0E8C437
:1000DE00540F4430120505E8540F4430120505D074
:0200EE00E0220E
:1000F000C0E0C0D0C000C001C002E4F544F545F541
:1001000046F547F5487A20E53FA2E77904783CE6D2
:1001100033F608D9FA79057844E636D4F608D9F9E1
:10012000DAE5D002D001D000D0D0D0E022C0E0C0CB
:10013000D0C000C001C002E4F544F545F546F547DE
:10014000F5487A20E53FA2E77904783CE633F608E3
:10015000D9FA79057844C0D0E6243320E70224D0C8
:1001600020E30224FDD0D033F608D9EADAD6D00253
:10017000D001D000D0D0D0E022C0E0C0D0C000C0BC
:1001800001C0027A207905C37848E613C0D030E771
:100190000224D030E30224FDF618D0D0D9EC790443
:1001A000783FE613F618D9FADADBD002D001D00096
:1001B000D0D0D0E022C0E0C0D0E53C2540F53CE501
:1001C0003D3541F53DE53E3542F53EE53F3543F5EC
:1001D0003FD0D0D0E022C0E0C0D0C3E53C9540F590
:1001E0003CE53D9541F53DE53E9542F53EE53F95C3
:1001F00043F53FD0D0D0E022C0E0C0D0C3E53C956D
:1002000040E53D9541E53E9542E53F95439203D05B
:10021000D0D0E022C0E0C0D0C3E540953CE5419598
:100220003DE542953EE543953F9203D0D0D0E02294
:10023000C0E0C0D0C203C3E540953C7014E54195D1
:100240003D700EE542953E7008E543953F7002D241
:1002500003D0D0D0E0221202302003030202142285
:100260001202302003030201F822C0E0C0F0C0D027
:10027000C000C001C002C003E53C8540F0A4F8A95D
:10028000F0E53D8540F0A429F9E435F0FAE53C8538
:1002900041F0A429F9E5F03AFAE433FBE53E854064
:1002A000F0A42AFAE5F03BFBE53D8541F0A42AFAEB
:1002B000E5F03BFBE53C8542F0A42AFAE5F03BFB88
:1002C000E53F8540F0A42BFBE53E8541F0A42BFBE8
:1002D000E53D8542F0A42BFBE53C8543F0A42BFBD8
:1002E0008B3F8A3E893D883CD003D002D001D000AC
:1002F000D0D0D0F0D0E022C0E0C0D0C000C001C05B
:1003000002C003C0047C20E4F8F9FAFBC3E53C33E7
:10031000F53CE53D33F53DE53E33F53EE53F33F550
:100320003FE833F8E933F9EA33FAEB33FBC3E895F6
:1003300040E99541EA9542EB95434013E89540F832
:10034000E99541F9EA9542FAEB9543FB433C01DC20
:10035000BBD004D003D002D001D000D0D0D0E02256
:1003600000002D001C880044DD004B31008BCA00CA
:1003700091D600CC5800DBEC00F06300F652014847
:100380009A01938401DC6802D52D030E970332AAEB
:100390000360B403AF4904149A0456F7046550058A
:1003A000308305756C001C5B002855000654004026
:1003B0009900060C003A82000F940014770005EFB4
:1003C000005248004AEA0048E400F8C500396A00D3
:1003D0002413002E0A004E9500655100425D000E68
:0703E0005900CB330044E992
:1003E70053546D703A0053546D3A0052546D703A3D
:1003F7000052546D3A0053746174653E00546D6544
:100407003E003A00546D703E005265666C6F77206F
:1004170054656D70657261747572653A00526566F0
:100427006C6F772054696D653A00536F616B205488
:10043700696D653A00536F616B2054656D70657225
:1004470061747572653A0052616D702D536F616BFF
:1004570000536F616B0052616D702D5065616B00C9
:100467005265666C6F7700436F6F6C696E6700D279
:1004770095C29422C0E079007A08E833F89296D2C0
:1004870094A295E933F9C294DAF0D0E02233929638
:10049700D294A295C29492E0339296D294A295C236
:1004A7009492E0339296D294A295C29492E03392BA
:1004B70096D294A295C29492E0339296D294A29542
:1004C700C29492E0339296D294A295C29492E0336A
:1004D7009296D294A295C29492E0339296D294A225
:1004E70095C29492E02279DE78A6D8FED9FA43879E
:1004F70080759852759B00759AF4759B1E223099EA
:10050700FDC299F59922208218C0027A3212003969
:10051700D00220820C3082FD20840415358002052C
:100527003522208318C0027A32120039D002208384
:100537000C3083FD20840415348002053422208486
:1005470018C0027A32120039D00220840C3084FDA0
:1005570020840415378002053722208618C0027AC6
:1005670032120039D00220860C3086FD2084041513
:1005770036800205362220C512C0027A32120039AF
:10058700D00220C50630C5FD12087C22300105C205
:100597000102059C22E53B94645002402675F064F5
:1005A700E53B849401600A75F064E53B849402603E
:1005B700000206470205BE75F064E53B84E5F0607E
:1005C700CB700075F064E53B84E5F094145011E4BA
:1005D70075F064E53B84E5F0940A401CE4020605E7
:1005E700E53B75F06484E5F075F00A84E5F0600298
:1005F700700602064702060B02064702060B0206B2
:100607004702060B02059353CECE43CF31D295D284
:1006170080C294C2A653890F438910758DFC758BD0
:100627001575F5FC75F315D2ABD28E75A5A075A41B
:100637003A75AD8075AC0043A440E5A420E6FB22E3
:10064700C28ED280C2A6C2807403120494740212AE
:10065700049474D5120494742D1204947402120431
:1006670094754D00754C39754B6AD2A6D28E22C04F
:10067700E0E8540F443012007ED0E02275F0648425
:10068700443012007EE5F075F00A84443012007E93
:10069700E5F0443012007E227401120083C0027A12
:1006A70002120039D002C0E07401141200BFD0E07A
:1006B700C083C082C0E09004041200B2D0E0D082B0
:1006C700D083C0E07406141200BFD0E0C083C0829C
:1006D700C0E09004091200B2D0E0D082D083C0E01D
:1006E700740A141200BFD0E0C083C082C0E0900437
:1006F7000B1200B2D0E0D082D083C0E07401141294
:1007070000BDD0E0C083C082C0E09003FD1200B2FC
:10071700D0E0D082D08322C0E07405141200BFD08D
:10072700E0C000A839120676D000C0E074071412A2
:1007370000BFD0E0C000A8381200C4D00022C0E03B
:100747007401141200BFD0E0C083C082C0E09003E0
:10075700E71200B2D0E0D082D083C0E07406141252
:1007670000BFD0E0E534120683C0E0740A1412001B
:10077700BFD0E0C083C082C0E09003ED1200B2D0CA
:10078700E0D082D083C0E0740E141200BFD0E0E541
:1007970035120683C0E07401141200BDD0E0C08397
:1007A700C082C0E09003F21200B2D0E0D082D083C2
:1007B700C0E07406141200BDD0E0E536120683C00F
:1007C700E0740A141200BDD0E0C083C082C0E0907C
:1007D70003F81200B2D0E0D082D083C0E0740E14C8
:1007E7001200BDD0E0E53712068322C0E0740E1474
:1007F7001200BFD0E0C000A845120676D000C000A6
:10080700A8441200C4D00022C0A8C2AF75D1089076
:100817007F80E534F0A3E535F0A3E536F0A3E537AF
:10082700F0A37455F0A374AAF0A375D10043D24086
:1008370075D15075D1A075D10053D2BFD0A82290E1
:100847007F84E493F8A3B8551FE493F8A3B8AA18D4
:10085700907F80E493F534A3E493F535A3E493F50F
:1008670036A3E493F537A32275348275353C753684
:10087700DC75371E227401120083C28720C5FDC0B4
:10088700027A32120039D00220C5EA30C5FD020AC9
:100897002122C297780112047B788012047BE954E5
:1008A70003F54A785512047B8949D297C0027A0A20
:1008B700120039D002AE49AF4A22753C00753D009F
:1008C700753E00753F007D641208997543007542B7
:1008D700008F418E401201B512096BDDEB75406444
:1008E7007541007542007543001202F77540EA75BD
:1008F700410775420075430012026A7540587541F9
:100907001B7542007543001202F7754016754100CA
:100917007542007543001201B5853C3B1200F01289
:1009270007F2C000A8451200DAD000C000A84412A0
:1009370000DAD000740D120505740A12050522C0ED
:10094700027AFA120039D002C0027AFA120039D0BC
:1009570002C0027AFA120039D002C0027AFA1200F3
:1009670039D00222784AD8FE22C0E0C0D0E54B45F4
:100977004C454D601E74FF154BB54B07154CB54CD8
:1009870002154DD2A6120494F5802480F5AD43A438
:1009970040800AC28EC2A675AD8043A440D0D0D095
:1009A700E03275C80075CDA975CC9A75CBA975CA03
:1009B7009AE4F530F531F532D2ADD2CAC20222C27D
:1009C700CFB290C0E0C0D00530E53070020531C32A
:1009D700E54E9530E54F95319290E530B4E836E530
:1009E70031B40331D2000532E532B40505D201E452
:1009F700F532E4F530F53130021BE5382401D4F542
:100A070038B4600A753800E5392401D4F539E53A78
:100A17002401D4F53AD0D0D0E03275817F1209A9EC
:100A27001200881204ED12060E75E60075E700D273
:100A3700AF120846754E00754F00753300754E00AE
:100A4700754F0012074512057D12050D1205291273
:100A5700054512056112080F2085E2C0027A32129D
:100A67000039D0022085D63085FD753301753A00EF
:100A7700D20275380075390012069FC0E07407145A
:100A87001200BDD0E0C083C082C0E090044E1200C7
:100A9700B2D0E0D082D083754EE8754F0312057D42
:100AA70012071E1208C11200F01207F28003020A91
:100AB700A42085FAC0027A32120039D0022085EECE
:100AC7003085FD7533028000753A0012069FC0E03D
:100AD7007407141200BDD0E0C083C082C0E0900448
:100AE700581200B2D0E0D082D083754EC8754F003F
:100AF70012057D12071E2085F7C0027A32120039CF
:100B0700D0022085EB3085FD753A00020B15D287A0
:100B170012069FC0E07407141200BDD0E0C083C066
:100B270082C0E090045D1200B2D0E0D082D083751D
:100B37004EE8754F0312057D12071E2085F7C00288
:100B47007A32120039D0022085EB3085FD753A00E4
:100B5700020B5A12069FC0E07407141200BDD0E0C2
:100B6700C083C082C0E09004671200B2D0E0D08298
:100B7700D083754EC8754F0012057D12071E20855C
:100B8700F7C0027A32120039D0022085EB3085FD9A
:100B9700753A00020B9DC28712069FC083C082C0B0
:100BA700E090046E1200B2D0E0D082D083754E0080
:100BB700754F0012057D12071E2085F7C0027A3295
:100BC700120039D0022085EB3085FD753A00753368
:040BD70000020A21ED
:00000001FF
