:030000000218766D
:0100030032CA
:01000B0032C2
:0100130032BA
:03001B000217CAFF
:0100230032AA
:03002B0002182098
:10002E00C00078B10000D8FCD00022C000C0017919
:10003E002D78A6D8FED9FADAF6D001D00022D2B3A6
:10004E0012002EC2B322A2E792B7A2E692B6A2E5A2
:10005E0092B5A2E492B412004C12002EA2E392B713
:10006E00A2E292B6A2E192B5A2E092B412004C22A4
:10007E00D2B2020054C2B2020054C2B374331200A0
:10008E008374331200837432120083742812008337
:10009E00740C1200837401120083C0027A021200E3
:1000AE0039D00222E493600612007EA380F6224429
:1000BE00404480020083C0E0E8C4540F4430120074
:1000CE007EE8540F443012007ED0E022C0E0E8C437
:1000DE00540F443012047EE8540F443012047ED084
:0200EE00E0220E
:1000F000C0E0C0D0C000C001C002E4F545F546F53F
:1001000047F548F5497A20E540A2E77904783DE6CD
:1001100033F608D9FA79057845E636D4F608D9F9E0
:10012000DAE5D002D001D000D0D0D0E022C0E0C0CB
:10013000D0C000C001C002E4F545F546F547F548DA
:10014000F5497A20E540A2E77904783DE633F608E0
:10015000D9FA79057845C0D0E6243320E70224D0C7
:1001600020E30224FDD0D033F608D9EADAD6D00253
:10017000D001D000D0D0D0E022C0E0C0D0C000C0BC
:1001800001C0027A207905C37849E613C0D030E770
:100190000224D030E30224FDF618D0D0D9EC790443
:1001A0007840E613F618D9FADADBD002D001D00095
:1001B000D0D0D0E022C0E0C0D0E53D2541F53DE5FE
:1001C0003E3542F53EE53F3543F53FE5403544F5E4
:1001D00040D0D0D0E022C0E0C0D0C3E53D9541F58D
:1001E0003DE53E9542F53EE53F9543F53FE54095BB
:1001F00044F540D0D0D0E022C0E0C0D0C3E53D956A
:1002000041E53E9542E53F9543E54095449203D054
:10021000D0D0E022C0E0C0D0C3E541953DE5429595
:100220003EE543953FE54495409203D0D0D0E0228F
:10023000C0E0C0D0C203C3E541953D7014E54295CE
:100240003E700EE543953F7008E54495407002D23C
:1002500003D0D0D0E0221202302003030202142285
:100260001202302003030201F822C0E0C0F0C0D027
:10027000C000C001C002C003E53D8541F0A4F8A95B
:10028000F0E53E8541F0A429F9E435F0FAE53D8535
:1002900042F0A429F9E5F03AFAE433FBE53F854161
:1002A000F0A42AFAE5F03BFBE53E8542F0A42AFAE9
:1002B000E5F03BFBE53D8543F0A42AFAE5F03BFB86
:1002C000E5408541F0A42BFBE53F8542F0A42BFBE4
:1002D000E53E8543F0A42BFBE53D8544F0A42BFBD4
:1002E0008B408A3F893E883DD003D002D001D000A8
:1002F000D0D0D0F0D0E022C0E0C0D0C000C001C05B
:1003000002C003C0047C20E4F8F9FAFBC3E53D33E6
:10031000F53DE53E33F53EE53F33F53FE54033F54A
:1003200040E833F8E933F9EA33FAEB33FBC3E895F5
:1003300041E99542EA9543EB95444013E89541F82D
:10034000E99542F9EA9543FAEB9544FB433D01DC1C
:10035000BBD004D003D002D001D000D0D0D0E02256
:1003600053546D703A0053546D3A0052546D703AC4
:100370000052546D3A0053746174653E00546D65CB
:100380003E003A00546D703E005265666C6F7720F7
:1003900054656D70657261747572653A0052656678
:1003A0006C6F772054696D653A00536F616B205410
:1003B000696D653A00536F616B2054656D706572AD
:1003C00061747572653A0052616D702D536F616B87
:1003D00000536F616B0052616D702D5065616B0051
:1003E0005265666C6F7700436F6F6C696E6700D201
:1003F00095C29422C0E079007A08E833F89296D248
:1004000094A295E933F9C294DAF0D0E0223392A4B1
:10041000D2A0A2A1C2A092E03392A4D2A0A2A1C273
:10042000A092E03392A4D2A0A2A1C2A092E0339203
:10043000A4D2A0A2A1C2A092E03392A4D2A0A2A171
:10044000C2A092E03392A4D2A0A2A1C2A092E033B3
:1004500092A4D2A0A2A1C2A092E03392A4D2A0A260
:10046000A1C2A092E02279DE78A6D8FED9FA43870D
:1004700080759852759B00759AF4759B1E22309971
:10048000FDC299F59922208218C0027A32120039F1
:10049000D00220820C3082FD2081041535800205B7
:1004A0003522208318C0027A32120039D00220830C
:1004B0000C3083FD20810415348002053422208411
:1004C00018C0027A32120039D00220840C3084FD28
:1004D00020810415378002053722208618C0027A51
:1004E00032120039D00220860C3086FD208104159E
:1004F00036800205362220C518C0027A3212003931
:10050000D00220C50C30C5FD754F00755000121685
:10051000C522208011C0027A32120039D002208018
:10052000053080FDB2042220860FC0027A3212000C
:1005300039D0022086033086FD22300104C20180BA
:100540000122E53B94645002400280030206487594
:10055000F064E53B849401600A75F064E53B8494A3
:100560000260651217B2C28ED2A5C2A6C2A57403DC
:1005700012040D740112040D749312040D7484128C
:10058000040D740112040D754E00754D36754CB096
:10059000D2A6D28E1217B2C28ED2A5C2A6C2A5749E
:1005A0000312040D740512040D740912040D741065
:1005B00012040D740512040D754E00754D27754C0F
:1005C00010D2A6D28E02062D1217B2C28ED2A5C2AA
:1005D000A6C2A5740312040D740112040D74C7128F
:1005E000040D741412040D740112040D754E00757F
:1005F0004D13754C88D2A6D28E1217B2C28ED2A5D8
:10060000C2A6C2A5740312040D740512040D740968
:1006100012040D741012040D740512040D754E00B1
:10062000754D27754C10D2A6D28E02062D75F0643A
:10063000E53B95F0E5F0600D75F0C8E53B95F0E51C
:10064000F06002800302054175F064E53B84E5F04B
:10065000941450276025E475F064E53B84E5F0943C
:100660000A401575F064E53B84E5F0940A6000E506
:10067000F094144000020A3C02083CE53B75F0642B
:1006800084E5F075F00A84B402341217B2C28ED237
:10069000A5C2A6C2A5740312040D740312040D743E
:1006A000EF12040D74D012040D740312040D754E74
:1006B00000754D27754C10D2A6D28E020839B403AE
:1006C000341217B2C28ED2A5C2A6C2A574031204F8
:1006D0000D740412040D741612040D74E012040D4E
:1006E000740412040D754E00754D23754C28D2A666
:1006F000D28E020839B404341217B2C28ED2A5C207
:10070000A6C2A5740312040D740412040D743D12E4
:10071000040D74F012040D740412040D754E00756E
:100720004D1F754C40D2A6D28E020839B405341242
:1007300017B2C28ED2A5C2A6C2A5740312040D744C
:100740000412040D745112040D747812040D740413
:1007500012040D754E00754D23754C28D2A6D28E0D
:10076000020839B406341217B2C28ED2A5C2A6C28C
:10077000A5740312040D740412040D747412040D94
:1007800074A012040D740412040D754E00754D27EB
:10079000754C10D2A6D28E020839B407341217B2A3
:1007A000C28ED2A5C2A6C2A5740312040D7404128F
:1007B000040D749B12040D74B012040D7404120421
:1007C0000D754E00754D32754CC8D2A6D28E0208FA
:1007D00039B408341217B2C28ED2A5C2A6C2A5740B
:1007E0000312040D740412040D74C612040D74A8CF
:1007F00012040D740412040D754E00754D23754CD2
:1008000028D2A6D28E0208391217B2C28ED2A5C241
:10081000A6C2A5740312040D740412040D74ED1223
:10082000040D74B812040D740412040D754E007595
:100830004D1F754C40D2A6D28E02083C75F064E57F
:100840003B84E5F075F00A84E5F0B40003020A3950
:10085000B401341217B2C28ED2A5C2A6C2A57403C7
:1008600012040D740112040D749312040D74841299
:10087000040D740112040D754E00754D36754CB0A3
:10088000D2A6D28E020A39B402341217B2C28ED264
:10089000A5C2A6C2A5740312040D740112040D743E
:1008A000C712040D741412040D740112040D754E58
:1008B00000754D13754C88D2A6D28E020A39B40346
:1008C000341217B2C28ED2A5C2A6C2A574031204F6
:1008D0000D740112040D74D612040D746812040D07
:1008E000740112040D754E00754D23754C28D2A667
:1008F000D28E020A39B404341217B2C28ED2A5C203
:10090000A6C2A5740312040D740112040D74F4122E
:10091000040D740012040D740112040D754E00755F
:100920004D1B754C58D2A6D28E020A39B40534122A
:1009300017B2C28ED2A5C2A6C2A5740312040D744A
:100940000212040D740712040D748812040D74024F
:1009500012040D754E00754D1B754C58D2A6D28EE3
:10096000020A39B406341217B2C28ED2A5C2A6C288
:10097000A5740312040D740212040D742612040DE2
:1009800074C812040D740212040D754E00754D1FCB
:10099000754C40D2A6D28E020A39B407341217B26F
:1009A000C28ED2A5C2A6C2A5740312040D7402128F
:1009B000040D743612040D746812040D74021204CE
:1009C0000D754E00754D23754C28D2A6D28E020AA5
:1009D00039B408341217B2C28ED2A5C2A6C2A57409
:1009E0000312040D740212040D745712040D749C4A
:1009F00012040D740212040D754E00754D1B754CDA
:100A000058D2A6D28E020A391217B2C28ED2A5C20D
:100A1000A6C2A5740312040D740212040D746912A7
:100A2000040D743012040D740212040D754E00751D
:100A30004D1F754C40D2A6D28E020C6775F064E54E
:100A40003B84E5F0B40A341217B2C28ED2A5C2A616
:100A5000C2A5740312040D740212040D74841204EE
:100A60000D748812040D740212040D754E00754D3C
:100A700017754C70D2A6D28E020C64B40B341217C8
:100A8000B2C28ED2A5C2A6C2A5740312040D74020E
:100A900012040D749B12040D74F812040D740212EA
:100AA000040D754E00754D1F754C40D2A6D28E02B6
:100AB0000C64B40C341217B2C28ED2A5C2A6C2A561
:100AC000740312040D740212040D74B712040D7431
:100AD0005012040D740212040D754E00754D1F75F1
:100AE0004C40D2A6D28E020C64B40D341217B2C29E
:100AF0008ED2A5C2A6C2A5740312040D74021204FC
:100B00000D74CE12040D74C012040D740212040D83
:100B1000754E00754D2E754CE0D2A6D28E020C6437
:100B2000B40E341217B2C28ED2A5C2A6C2A57403E7
:100B300012040D740212040D74F512040D74D01217
:100B4000040D740212040D754E00754D36754CB0CF
:100B5000D2A6D28E020C64B40F341217B2C28ED257
:100B6000A5C2A6C2A5740312040D740312040D7469
:100B70002812040D749812040D740312040D754E9E
:100B800000754D23754C28D2A6D28E020C64B41089
:100B9000341217B2C28ED2A5C2A6C2A57403120423
:100BA0000D740312040D744712040D74D812040D51
:100BB000740312040D754E00754D32754CC8D2A6E3
:100BC000D28E020C64B411341217B2C28ED2A5C2F6
:100BD000A6C2A5740312040D740312040D747612D8
:100BE000040D74B812040D740312040D754E0075D3
:100BF0004D2E754C20D2A6D28E020C64B412341243
:100C000017B2C28ED2A5C2A6C2A5740312040D7477
:100C10000312040D74A112040D74B012040D7403B8
:100C200012040D754E00754D27754C10D2A6D28E4C
:100C3000020C641217B2C28ED2A5C2A6C2A574035A
:100C400012040D740312040D74C812040D74C01242
:100C5000040D740312040D754E00754D27754C106C
:100C6000D2A6D28E020C67020541300104C2018077
:100C70000122E53B9464500240028003020D787526
:100C8000F064E53B849401600A75F064E53B84946C
:100C90000260651217B2C28ED2A5C2A6C2A57403A5
:100CA00012040D740112040D749312040D74841255
:100CB000040D740112040D754E00754D36754CB05F
:100CC000D2A6D28E1217B2C28ED2A5C2A6C2A57467
:100CD0000312040D740512040D740912040D74102E
:100CE00012040D740512040D754E00754D27754CD8
:100CF00010D2A6D28E020D5D1217B2C28ED2A5C23C
:100D0000A6C2A5740312040D740112040D74C71257
:100D1000040D741412040D740112040D754E007547
:100D20004D13754C88D2A6D28E1217B2C28ED2A5A0
:100D3000C2A6C2A5740312040D740512040D740931
:100D400012040D741012040D740512040D754E007A
:100D5000754D27754C10D2A6D28E020D5D75F064CC
:100D6000E53B95F0E5F0600D75F0C8E53B95F0E5E5
:100D7000F060028003020C7175F064E53B84E5F0DD
:100D8000941450276025E475F064E53B84E5F09405
:100D90000A401575F064E53B84E5F0940A6000E5CF
:100DA000F09414400002116C020F6CE53B75F06486
:100DB00084E5F075F00A84B402341217B2C28ED200
:100DC000A5C2A6C2A5740312040D740312040D7407
:100DD000EF12040D74D012040D740312040D754E3D
:100DE00000754D27754C10D2A6D28E020F69B40340
:100DF000341217B2C28ED2A5C2A6C2A574031204C1
:100E00000D740412040D741612040D74E012040D16
:100E1000740412040D754E00754D23754C28D2A62E
:100E2000D28E020F69B404341217B2C28ED2A5C298
:100E3000A6C2A5740312040D740412040D743D12AD
:100E4000040D74F012040D740412040D754E007537
:100E50004D1F754C40D2A6D28E020F69B4053412D4
:100E600017B2C28ED2A5C2A6C2A5740312040D7415
:100E70000412040D745112040D747812040D7404DC
:100E800012040D754E00754D23754C28D2A6D28ED6
:100E9000020F69B406341217B2C28ED2A5C2A6C21E
:100EA000A5740312040D740412040D747412040D5D
:100EB00074A012040D740412040D754E00754D27B4
:100EC000754C10D2A6D28E020F69B407341217B235
:100ED000C28ED2A5C2A6C2A5740312040D74041258
:100EE000040D749B12040D74B012040D74041204EA
:100EF0000D754E00754D32754CC8D2A6D28E020FBC
:100F000069B408341217B2C28ED2A5C2A6C2A574A3
:100F10000312040D740412040D74C612040D74A897
:100F200012040D740412040D754E00754D23754C9A
:100F300028D2A6D28E020F691217B2C28ED2A5C2D3
:100F4000A6C2A5740312040D740412040D74ED12EC
:100F5000040D74B812040D740412040D754E00755E
:100F60004D1F754C40D2A6D28E020F6C75F064E511
:100F70003B84E5F075F00A84E5F0B40003021169E2
:100F8000B401341217B2C28ED2A5C2A6C2A5740390
:100F900012040D740112040D749312040D74841262
:100FA000040D740112040D754E00754D36754CB06C
:100FB000D2A6D28E021169B402341217B2C28ED2F6
:100FC000A5C2A6C2A5740312040D740112040D7407
:100FD000C712040D741412040D740112040D754E21
:100FE00000754D13754C88D2A6D28E021169B403D8
:100FF000341217B2C28ED2A5C2A6C2A574031204BF
:101000000D740112040D74D612040D746812040DCF
:10101000740112040D754E00754D23754C28D2A62F
:10102000D28E021169B404341217B2C28ED2A5C294
:10103000A6C2A5740312040D740112040D74F412F7
:10104000040D740012040D740112040D754E007528
:101050004D1B754C58D2A6D28E021169B4053412BC
:1010600017B2C28ED2A5C2A6C2A5740312040D7413
:101070000212040D740712040D748812040D740218
:1010800012040D754E00754D1B754C58D2A6D28EAC
:10109000021169B406341217B2C28ED2A5C2A6C21A
:1010A000A5740312040D740212040D742612040DAB
:1010B00074C812040D740212040D754E00754D1F94
:1010C000754C40D2A6D28E021169B407341217B201
:1010D000C28ED2A5C2A6C2A5740312040D74021258
:1010E000040D743612040D746812040D7402120497
:1010F0000D754E00754D23754C28D2A6D28E021167
:1011000069B408341217B2C28ED2A5C2A6C2A574A1
:101110000312040D740212040D745712040D749C12
:1011200012040D740212040D754E00754D1B754CA2
:1011300058D2A6D28E0211691217B2C28ED2A5C29F
:10114000A6C2A5740312040D740212040D74691270
:10115000040D743012040D740212040D754E0075E6
:101160004D1F754C40D2A6D28E02139775F064E5E0
:101170003B84E5F0B40A341217B2C28ED2A5C2A6DF
:10118000C2A5740312040D740212040D74841204B7
:101190000D748812040D740212040D754E00754D05
:1011A00017754C70D2A6D28E021394B40B3412175A
:1011B000B2C28ED2A5C2A6C2A5740312040D7402D7
:1011C00012040D749B12040D74F812040D740212B3
:1011D000040D754E00754D1F754C40D2A6D28E027F
:1011E0001394B40C341217B2C28ED2A5C2A6C2A5F3
:1011F000740312040D740212040D74B712040D74FA
:101200005012040D740212040D754E00754D1F75B9
:101210004C40D2A6D28E021394B40D341217B2C22F
:101220008ED2A5C2A6C2A5740312040D74021204C4
:101230000D74CE12040D74C012040D740212040D4C
:10124000754E00754D2E754CE0D2A6D28E021394C9
:10125000B40E341217B2C28ED2A5C2A6C2A57403B0
:1012600012040D740212040D74F512040D74D012E0
:10127000040D740212040D754E00754D36754CB098
:10128000D2A6D28E021394B40F341217B2C28ED2E9
:10129000A5C2A6C2A5740312040D740312040D7432
:1012A0002812040D749812040D740312040D754E67
:1012B00000754D23754C28D2A6D28E021394B4101B
:1012C000341217B2C28ED2A5C2A6C2A574031204EC
:1012D0000D740312040D744712040D74D812040D1A
:1012E000740312040D754E00754D32754CC8D2A6AC
:1012F000D28E021394B411341217B2C28ED2A5C288
:10130000A6C2A5740312040D740312040D747612A0
:10131000040D74B812040D740312040D754E00759B
:101320004D2E754C20D2A6D28E021394B4123412D4
:1013300017B2C28ED2A5C2A6C2A5740312040D7440
:101340000312040D74A112040D74B012040D740381
:1013500012040D754E00754D27754C10D2A6D28E15
:101360000213941217B2C28ED2A5C2A6C2A57403EC
:1013700012040D740312040D74C812040D74C0120B
:10138000040D740312040D754E00754D27754C1035
:10139000D2A6D28E021397020C7143CE9043CF9007
:1013A000D2A1D2A5C2A0C2A653890F438910758DC0
:1013B000FC758B8C75F5FC75F38CD2ABD28E75A554
:1013C000A075A43A75AD8075AC0043A440E5A42097
:1013D000E6FB22C0E0E8540F443012007ED0E02249
:1013E00075F06484443012007EE5F075F00A8444A0
:1013F0003012007EE5F0443012007E2274011200AB
:1014000083C0027A02120039D002C0E074011412C3
:1014100000BFD0E0C083C082C0E090037D1200B264
:10142000D0E0D082D083C0E07406141200BFD0E0B8
:10143000C083C082C0E09003821200B2D0E0D082AC
:10144000D083C0E0740A141200BFD0E0C083C08211
:10145000C0E09003841200B2D0E0D082D083C0E01C
:101460007401141200BDD0E0C083C082C0E09003BC
:10147000761200B2D0E0D082D08322C0E07405148E
:101480001200BFD0E0C000A8391213D3D000C0E0D2
:101490007407141200BFD0E0C000A8381200C4D0F6
:1014A0000022C0E07401141200BFD0E0C083C082EB
:1014B000C0E09003601200B2D0E0D082D083C0E0E0
:1014C0007406141200BFD0E0E5341213E0C0E074DB
:1014D0000A141200BFD0E0C083C082C0E09003664F
:1014E0001200B2D0E0D082D083C0E0740E1412009B
:1014F000BFD0E0E5351213E0C0E07401141200BD66
:10150000D0E0C083C082C0E090036B1200B2D0E094
:10151000D082D083C0E07406141200BDD0E0E5365E
:101520001213E0C0E0740A141200BDD0E0C083C002
:1015300082C0E09003711200B2D0E0D082D083C0AC
:10154000E0740E141200BDD0E0E5371213E022C0A3
:10155000E0740E141200BFD0E0C000A8461213D3EE
:10156000D000C000A8451200C4D00022740F1200A1
:10157000837480120083745712007EC0027AFA12BC
:101580000039D002746512007EC0027AFA12003966
:10159000D002746C12007EC0027AFA120039D002B6
:1015A000746312007EC0027AFA120039D002746F9E
:1015B00012007EC0027AFA120039D002746D120055
:1015C0007EC0027AFA120039D002746512007EC021
:1015D000027AFA120039D002742112007EC0027A17
:1015E000FA120039D002742012007EC0027AFA1278
:1015F0000039D002746012007EC0027AFA120039FB
:10160000D00274EF12007EC0027AFA120039D002C2
:10161000742F12007E12178D12178D740C12008316
:1016200022C0A8C2AF75D108907F80E534F0A3E551
:1016300035F0A3E536F0A3E537F0A37455F0A374B5
:10164000AAF0A375D10043D24075D15075D1A075D1
:10165000D10053D2BFD0A822C0A8C2AF75D1089084
:101660007F80E534F0A3E535F0A3E536F0A3E53758
:10167000F0A37455F0A374AAF0A375D10043D2402F
:1016800075D15075D1A075D10053D2BFD0A822908A
:101690007F84E493F8A3B8551FE493F8A3B8AA187D
:1016A000907F80E493F534A3E493F535A3E493F5B8
:1016B00036A3E493F537A32275348275353C75362D
:1016C000DC75371E22740112008320C5FDC0027A2A
:1016D00032120039D00220C5EC30C5FD0218762246
:1016E000C29778011203F478801203F4E95403F5E9
:1016F0004B78551203F4894AD297C0027A0A120035
:1017000039D002AE4AAF4B22753D00753E00753FA1
:10171000007540007D641216E07544007543008F2B
:10172000428E411201B51217C5DDEB754164754259
:10173000007543007544001202F775414E75420B67
:1017400075430075440012026A7541107542277591
:1017500043007544001202F7754116754200754347
:10176000007544001201B5853D3B1200F012154F83
:10177000C000A8461200DAD000C000A8451200DA66
:10178000D000740D12047E740A12047E22C0027A04
:10179000FA120039D002C0027AFA120039D002C01F
:1017A000027AFA120039D002C0027AFA120039D055
:1017B0000222C0027AFA120039D002C0027AFA126A
:1017C0000039D00222784AD8FE22C0E0C0D0E54CD1
:1017D000454D454E601C74FF154CB54C07154DB575
:1017E0004D02154ED2A612040D2480F5AD43A4403F
:1017F000800CC28ED2A5C2A675AD8043A440D0D0C5
:10180000D0E03275C80075CDA975CC9A75CBA97595
:10181000CA9AE4F530F531F532D2ADD2CAC202220D
:10182000C2CFB290C0E0C0D00530E53070020531C3
:10183000C3E54F9530E55095319290E530B4E831ED
:10184000E531B4032CD2000532E532B40505D201EE
:10185000E4F532E4F530F531300216E5382401D4F0
:10186000F538B4600A753800E5392401D4F5390536
:101870003AD0D0D0E03275817F121803120088125E
:10188000046612139A75E60075E700D2AFC20475BC
:101890004F007550007533001217B2C28ED2A5C228
:1018A000A6C2A5740312040D741912040D748E12CD
:1018B000040D74F812040D741912040D754E0075A0
:1018C0004D75754C30D2A6D28E12156C754F0075C1
:1018D00050001214A21204F61204861204A212047A
:1018E000BE1204DA2085E5C0027A32120039D00235
:1018F0002085D93085FD753301753A00D202C28E3C
:10190000D2A5C2A6C2A5740312040D741812040D48
:1019100074CB12040D74A812040D741812040D7502
:101920004E02754D0F754C58D2A6D28E12178D757A
:101930003800753900753A001213FCC0E0740714C2
:101940001200BDD0E0C083C082C0E09003C7120087
:10195000B2D0E0D082D083754FE87550031217B231
:10196000C28ED2A5C2A6C2A5740312040D740012C1
:10197000040D740012040D742D12040D7400120471
:101980000D754E00754D4E754C20D2A6D28E80033B
:101990000218761204F612147B1217081205122090
:1019A000040512053A8003120C6AE53B9534501485
:1019B00060124000E53B943250D9E53A943C50D057
:1019C00060CE40CF753302753A001213FCC0E0744C
:1019D00007141200BDD0E0C083C082C0E09003D1E4
:1019E0001200B2D0E0D082D083754FC8755000127B
:1019F00017B2C28ED2A5C2A6C2A5740312040D747A
:101A00000012040D744412040D74DD12040D7400F0
:101A100012040D754E00754D4E754C20D2A6D28E17
:101A20001204F612147B12170820040512053A80DE
:101A300003120C6AE53A9535500240E4753A0312F8
:101A400013FCC0E07407141200BDD0E0C083C08254
:101A5000C0E09003D61200B2D0E0D082D083754FA0
:101A6000E87550031217B2C28ED2A5C2A6C2A574E1
:101A70000312040D740012040D748B12040D74CA49
:101A800012040D740012040D754E00754D75754CE1
:101A900030D2A6D28E1204F612170812147B20043C
:101AA0000512053A8003120C6AE53B953650046036
:101AB0000240E2753A04753A001213FCC0E0740764
:101AC000141200BDD0E0C083C082C0E09003E012D9
:101AD00000B2D0E0D082D083754FC8755000121785
:101AE000B2C28ED2A5C2A6C2A5740312040D7400A0
:101AF00012040D74F012040D746312040D740012BC
:101B0000040D754E00754D59754CD8D2A6D28E1263
:101B100004F612147B12170820040512053A8003FC
:101B2000120C6AE53A9537500240E4753A00021B00
:101B300031C2871213FCC083C082C0E09003E71259
:101B400000B2D0E0D082D083754F007550001217DC
:101B5000B2C28ED2A5C2A6C2A5740312040D74012E
:101B600012040D744812040D749A12040D740112BB
:101B7000040D754E00754D6B754C6CD2A6D28EB2AD
:101B8000911204F612147B12170820040512053A6C
:101B90008003120C6AE53B943C50E660E44000C2CE
:101BA0008ED2A5C2A6C2A5740312040D7416120427
:101BB0000D74BC12040D745012040D741612040D31
:101BC000754E02754D0F754C58D2A6D28E12178DD8
:0B1BD000753A00753300D291021876C0
:00000001FF
