:03000000020AC031
:0100030032CA
:01000B0032C2
:0100130032BA
:03001B00020A14C2
:0100230032AA
:03002B00020A6A5C
:10002E00C00078B10000D8FCD00022C000C0017919
:10003E002D78A6D8FED9FADAF6D001D00022D2B3A6
:10004E0012002EC2B322A2E792B7A2E692B6A2E5A2
:10005E0092B5A2E492B412004C12002EA2E392B713
:10006E00A2E292B6A2E192B5A2E092B412004C22A4
:10007E00D2B2020054C2B2020054C2B374331200A0
:10008E008374331200837432120083742812008337
:10009E00740C1200837401120083C0027A021200E3
:1000AE0039D00222E493600612007EA380F6224429
:1000BE00404480020083C0E0E8C4540F4430120074
:1000CE007EE8540F443012007ED0E022C0E0E8C437
:1000DE00540F4430120505E8540F4430120505D074
:0200EE00E0220E
:1000F000C0E0C0D0C000C001C002E4F545F546F53F
:1001000047F548F5497A20E540A2E77904783DE6CD
:1001100033F608D9FA79057845E636D4F608D9F9E0
:10012000DAE5D002D001D000D0D0D0E022C0E0C0CB
:10013000D0C000C001C002E4F545F546F547F548DA
:10014000F5497A20E540A2E77904783DE633F608E0
:10015000D9FA79057845C0D0E6243320E70224D0C7
:1001600020E30224FDD0D033F608D9EADAD6D00253
:10017000D001D000D0D0D0E022C0E0C0D0C000C0BC
:1001800001C0027A207905C37849E613C0D030E770
:100190000224D030E30224FDF618D0D0D9EC790443
:1001A0007840E613F618D9FADADBD002D001D00095
:1001B000D0D0D0E022C0E0C0D0E53D2541F53DE5FE
:1001C0003E3542F53EE53F3543F53FE5403544F5E4
:1001D00040D0D0D0E022C0E0C0D0C3E53D9541F58D
:1001E0003DE53E9542F53EE53F9543F53FE54095BB
:1001F00044F540D0D0D0E022C0E0C0D0C3E53D956A
:1002000041E53E9542E53F9543E54095449203D054
:10021000D0D0E022C0E0C0D0C3E541953DE5429595
:100220003EE543953FE54495409203D0D0D0E0228F
:10023000C0E0C0D0C203C3E541953D7014E54295CE
:100240003E700EE543953F7008E54495407002D23C
:1002500003D0D0D0E0221202302003030202142285
:100260001202302003030201F822C0E0C0F0C0D027
:10027000C000C001C002C003E53D8541F0A4F8A95B
:10028000F0E53E8541F0A429F9E435F0FAE53D8535
:1002900042F0A429F9E5F03AFAE433FBE53F854161
:1002A000F0A42AFAE5F03BFBE53E8542F0A42AFAE9
:1002B000E5F03BFBE53D8543F0A42AFAE5F03BFB86
:1002C000E5408541F0A42BFBE53F8542F0A42BFBE4
:1002D000E53E8543F0A42BFBE53D8544F0A42BFBD4
:1002E0008B408A3F893E883DD003D002D001D000A8
:1002F000D0D0D0F0D0E022C0E0C0D0C000C001C05B
:1003000002C003C0047C20E4F8F9FAFBC3E53D33E6
:10031000F53DE53E33F53EE53F33F53FE54033F54A
:1003200040E833F8E933F9EA33FAEB33FBC3E895F5
:1003300041E99542EA9543EB95444013E89541F82D
:10034000E99542F9EA9543FAEB9544FB433D01DC1C
:10035000BBD004D003D002D001D000D0D0D0E02256
:1003600000002D001C880044DD004B31008BCA00CA
:1003700091D600CC5800DBEC00F06300F652014847
:100380009A01938401DC6802D52D030E970332AAEB
:100390000360B403AF4904149A0456F7046550058A
:1003A000308305756C001C5B002855000654004026
:1003B0009900060C003A82000F940014770005EFB4
:1003C000005248004AEA0048E400F8C500396A00D3
:1003D0002413002E0A004E9500655100425D000E68
:0703E0005900CB330044E992
:1003E70053546D703A0053546D3A0052546D703A3D
:1003F7000052546D3A0053746174653E00546D6544
:100407003E003A00546D703E005265666C6F77206F
:1004170054656D70657261747572653A00526566F0
:100427006C6F772054696D653A00536F616B205488
:10043700696D653A00536F616B2054656D70657225
:1004470061747572653A0052616D702D536F616BFF
:1004570000536F616B0052616D702D5065616B00C9
:100467005265666C6F7700436F6F6C696E6700D279
:1004770095C29422C0E079007A08E833F89296D2C0
:1004870094A295E933F9C294DAF0D0E0223392A42A
:10049700D2A0A2A1C2A092E03392A4D2A0A2A1C2EC
:1004A700A092E03392A4D2A0A2A1C2A092E033927C
:1004B700A4D2A0A2A1C2A092E03392A4D2A0A2A1EA
:1004C700C2A092E03392A4D2A0A2A1C2A092E0332C
:1004D70092A4D2A0A2A1C2A092E03392A4D2A0A2D9
:1004E700A1C2A092E02279DE78A6D8FED9FA438786
:1004F70080759852759B00759AF4759B1E223099EA
:10050700FDC299F59922208218C0027A3212003969
:10051700D00220820C3082FD20840415358002052C
:100527003522208318C0027A32120039D002208384
:100537000C3083FD20840415348002053422208486
:1005470018C0027A32120039D00220840C3084FDA0
:1005570020840415378002053722208618C0027AC6
:1005670032120039D00220860C3086FD2084041513
:1005770036800205362220C518C0027A32120039A9
:10058700D00220C50C30C5FD754F0075500012090B
:100597000F2220860FC0027A32120039D00220863D
:1005A700033086FD22300105C2010205B522E53B75
:1005B70094645002402375F064E53B849401600A1B
:1005C70075F064E53B84940260000205D475F0641D
:1005D700E53B84E5F060CE700075F064E53B84E5AB
:1005E700F094145011E475F064E53B84E5F0940A47
:1005F7004019E4020615E53B75F06484E5F075F0F3
:100607000A84E5F060027003020618020618020663
:10061700180205AC43CE9043CF90D2A1D2A5C2A079
:10062700C2A653890F438910758DFC758B8C75F5A0
:10063700FC75F38CD2ABD28E75A5A075A43A75ADB7
:100647008075AC0043A440E5A420E6FB22C0E0E8A7
:10065700540F443012007ED0E02275F06484443099
:1006670012007EE5F075F00A84443012007EE5F052
:10067700443012007E227401120083C0027A0212F3
:100687000039D002C0E07401141200BFD0E0C0836B
:10069700C082C0E09004041200B2D0E0D082D083C0
:1006A700C0E07406141200BFD0E0C083C082C0E06F
:1006B7009004091200B2D0E0D082D083C0E0740A5F
:1006C700141200BFD0E0C083C082C0E090040B12B8
:1006D70000B2D0E0D082D083C0E07401141200BD14
:1006E700D0E0C083C082C0E09003FD1200B2D0E02A
:1006F700D082D08322C0E07405141200BFD0E0C0BE
:1007070000A839120654D000C0E07407141200BFC5
:10071700D0E0C000A8381200C4D00022C0E07401A5
:10072700141200BFD0E0C083C082C0E09003E7127C
:1007370000B2D0E0D082D083C0E07406141200BFAC
:10074700D0E0E534120661C0E0740A141200BFD08D
:10075700E0C083C082C0E09003ED1200B2D0E0D0C9
:1007670082D083C0E0740E141200BFD0E0E53512CA
:100777000661C0E07401141200BDD0E0C083C082DE
:10078700C0E09003F21200B2D0E0D082D083C0E084
:100797007406141200BDD0E0E536120661C0E0749D
:1007A7000A141200BDD0E0C083C082C0E09003F8F5
:1007B7001200B2D0E0D082D083C0E0740E141200D1
:1007C700BDD0E0E53712066122C0E0740E141200B6
:1007D700BFD0E0C000A846120654D000C000A8450C
:1007E7001200C4D00022740F120083748012008399
:1007F700745712007EC0027AFA120039D00274656B
:1008070012007EC0027AFA120039D002746C12000C
:100817007EC0027AFA120039D002746312007EC0D9
:10082700027AFA120039D002746F12007EC0027A7F
:10083700FA120039D002746D12007EC0027AFA12E1
:100847000039D002746512007EC0027AFA120039AC
:10085700D002742112007EC0027AFA120039D00247
:10086700742012007EC0027AFA120039D002746036
:1008770012007EC0027AFA120039D00274EF120019
:100887007EC0027AFA120039D002742F12007E124B
:1008970009D71209D7740C12008322C0A8C2AF75FA
:1008A700D108907F80E534F0A3E535F0A3E536F075
:1008B700A3E537F0A37455F0A374AAF0A375D1008C
:1008C70043D24075D15075D1A075D10053D2BFD056
:1008D700A822907F84E493F8A3B8551FE493F8A364
:1008E700B8AA18907F80E493F534A3E493F535A371
:1008F700E493F536A3E493F537A32275348275356F
:100907003C7536DC75371E22740112008320C5FD45
:10091700C0027A32120039D00220C5EC30C5FD0280
:100927000AC022C297780112047B788012047BE9FF
:100937005403F54B785512047B894AD297C0027A43
:100947000A120039D002AE4AAF4B22753D00753E00
:1009570000753F007540007D6412092A75440075D3
:1009670043008F428E411201B5120A0FDDEB75412C
:10097700647542007543007544001202F775414ED5
:1009870075420B75430075440012026A7541107574
:1009970042277543007544001202F77541167542E8
:1009A700007543007544001201B5853D3B1200F008
:1009B7001207D0C000A8461200DAD000C000A84530
:1009C7001200DAD000740D120505740A120505220B
:1009D700C0027AFA120039D002C0027AFA1200393C
:1009E700D002C0027AFA120039D002C0027AFA1293
:1009F7000039D00222C0027AFA120039D002C002AE
:100A07007AFA120039D00222784AD8FE22C0E0C012
:100A1700D0E54C454D454E601C74FF154CB54C0751
:100A2700154DB54D02154ED2A61204942480F5AD8E
:100A370043A440800CC28ED2A5C2A675AD8043A444
:100A470040D0D0D0E03275C80075CDA975CC9A7565
:100A5700CBA975CA9AE4F530F531F532D2ADD2CAD1
:100A6700C20222C2CFB290C0E0C0D00530E53070DC
:100A7700020531C3E54F9530E55095319290E53049
:100A8700B4E831E531B4032CD2000532E532B405C0
:100A970005D201E4F532E4F530F531300216E538D8
:100AA7002401D4F538B4600A753800E5392401D437
:100AB700F539053AD0D0D0E03275817F120A4D1250
:100AC70000881204ED12061B75E60075E700D2AF29
:100AD7001208D9754F007550007533001207ED12D3
:100AE700072312057D12050D12052912054512056A
:100AF700611208A22085E8C0027A32120039D002BA
:100B07002085DC3085FD753301753A00D2027538D2
:100B170000753900753A0012067DC0E0740714129B
:100B270000BDD0E0C083C082C0E090044E1200B286
:100B3700D0E0D082D083754FE87550038003020A56
:100B4700C0C28ED2A5C2A6C2A574031204947401B2
:100B57001204947448120494749A1204947401123F
:100B67000494754E00754D59754CD8D2A6D28E1285
:100B7700057D1206FC120952E53B9534500E600CB8
:100B87004000E53A943C50B660B440B57533027501
:100B97003A0012067DC0E07407141200BDD0E0C011
:100BA70083C082C0E09004581200B2D0E0D082D057
:100BB70083754FC8755000C28ED2A5C2A6C2A57450
:100BC700031204947400120494744412049474DDA0
:100BD7001204947400120494754E00754D4E754CB2
:100BE70020D2A6D28E12057D1206FC120952E53AD2
:100BF7009535500240C1753A0312067DC0E074076F
:100C0700141200BDD0E0C083C082C0E090045D1222
:100C170000B2D0E0D082D083754FE8755003C28E02
:100C2700D2A5C2A6C2A57403120494740012049438
:100C3700748B12049474CA12049474001204947589
:100C47004E00754D75754C30D2A6D28E12057D12A9
:100C570009521206FCE53B95365004600240BF7509
:100C67003A04753A0012067DC0E07407141200BDFD
:100C7700D0E0C083C082C0E09004671200B2D0E029
:100C8700D082D083754FC8755000C28ED2A5C2A638
:100C9700C2A57403120494740012049474F012042D
:100CA7009474631204947400120494754E00754D85
:100CB70059754CD8D2A6D28E12057D1206FC1209A0
:100CC70052E53A9537500240C1753A00020CD6C238
:100CD7008712067DC083C082C0E090046E1200B206
:100CE700D0E0D082D083754F0075500012057D1279
:100CF70006FC120952E53B943C50F160EF40007549
:080D07003A00753300020AC036
:00000001FF
