:030000000210FAF1
:0100030032CA
:01000B0032C2
:0100130032BA
:03001B0002104E82
:0100230032AA
:03002B000210A41C
:10002E00C00078B10000D8FCD00022C000C0017919
:10003E002D78A6D8FED9FADAF6D001D00022D2B3A6
:10004E0012002EC2B322A2E792B7A2E692B6A2E5A2
:10005E0092B5A2E492B412004C12002EA2E392B713
:10006E00A2E292B6A2E192B5A2E092B412004C22A4
:10007E00D2B2020054C2B2020054C2B374331200A0
:10008E008374331200837432120083742812008337
:10009E00740C1200837401120083C0027A021200E3
:1000AE0039D00222E493600612007EA380F6224429
:1000BE00404480020083C0E0E8C4540F4430120074
:1000CE007EE8540F443012007ED0E022C0E0E8C437
:1000DE00540F443012047EE8540F443012047ED084
:0200EE00E0220E
:1000F000C0E0C0D0C000C001C002E4F545F546F53F
:1001000047F548F5497A20E540A2E77904783DE6CD
:1001100033F608D9FA79057845E636D4F608D9F9E0
:10012000DAE5D002D001D000D0D0D0E022C0E0C0CB
:10013000D0C000C001C002E4F545F546F547F548DA
:10014000F5497A20E540A2E77904783DE633F608E0
:10015000D9FA79057845C0D0E6243320E70224D0C7
:1001600020E30224FDD0D033F608D9EADAD6D00253
:10017000D001D000D0D0D0E022C0E0C0D0C000C0BC
:1001800001C0027A207905C37849E613C0D030E770
:100190000224D030E30224FDF618D0D0D9EC790443
:1001A0007840E613F618D9FADADBD002D001D00095
:1001B000D0D0D0E022C0E0C0D0E53D2541F53DE5FE
:1001C0003E3542F53EE53F3543F53FE5403544F5E4
:1001D00040D0D0D0E022C0E0C0D0C3E53D9541F58D
:1001E0003DE53E9542F53EE53F9543F53FE54095BB
:1001F00044F540D0D0D0E022C0E0C0D0C3E53D956A
:1002000041E53E9542E53F9543E54095449203D054
:10021000D0D0E022C0E0C0D0C3E541953DE5429595
:100220003EE543953FE54495409203D0D0D0E0228F
:10023000C0E0C0D0C203C3E541953D7014E54295CE
:100240003E700EE543953F7008E54495407002D23C
:1002500003D0D0D0E0221202302003030202142285
:100260001202302003030201F822C0E0C0F0C0D027
:10027000C000C001C002C003E53D8541F0A4F8A95B
:10028000F0E53E8541F0A429F9E435F0FAE53D8535
:1002900042F0A429F9E5F03AFAE433FBE53F854161
:1002A000F0A42AFAE5F03BFBE53E8542F0A42AFAE9
:1002B000E5F03BFBE53D8543F0A42AFAE5F03BFB86
:1002C000E5408541F0A42BFBE53F8542F0A42BFBE4
:1002D000E53E8543F0A42BFBE53D8544F0A42BFBD4
:1002E0008B408A3F893E883DD003D002D001D000A8
:1002F000D0D0D0F0D0E022C0E0C0D0C000C001C05B
:1003000002C003C0047C20E4F8F9FAFBC3E53D33E6
:10031000F53DE53E33F53EE53F33F53FE54033F54A
:1003200040E833F8E933F9EA33FAEB33FBC3E895F5
:1003300041E99542EA9543EB95444013E89541F82D
:10034000E99542F9EA9543FAEB9544FB433D01DC1C
:10035000BBD004D003D002D001D000D0D0D0E02256
:1003600053546D703A0053546D3A0052546D703AC4
:100370000052546D3A0053746174653E00546D65CB
:100380003E003A00546D703E005265666C6F7720F7
:1003900054656D70657261747572653A0052656678
:1003A0006C6F772054696D653A00536F616B205410
:1003B000696D653A00536F616B2054656D706572AD
:1003C00061747572653A0052616D702D536F616B87
:1003D00000536F616B0052616D702D5065616B0051
:1003E0005265666C6F7700436F6F6C696E6700D201
:1003F00095C29422C0E079007A08E833F89296D248
:1004000094A295E933F9C294DAF0D0E0223392A4B1
:10041000D2A0A2A1C2A092E03392A4D2A0A2A1C273
:10042000A092E03392A4D2A0A2A1C2A092E0339203
:10043000A4D2A0A2A1C2A092E03392A4D2A0A2A171
:10044000C2A092E03392A4D2A0A2A1C2A092E033B3
:1004500092A4D2A0A2A1C2A092E03392A4D2A0A260
:10046000A1C2A092E02279DE78A6D8FED9FA43870D
:1004700080759852759B00759AF4759B1E22309971
:10048000FDC299F59922208218C0027A32120039F1
:10049000D00220820C3082FD2081041535800205B7
:1004A0003522208318C0027A32120039D00220830C
:1004B0000C3083FD20810415348002053422208411
:1004C00018C0027A32120039D00220840C3084FD28
:1004D00020810415378002053722208618C0027A51
:1004E00032120039D00220860C3086FD208104159E
:1004F00036800205362220C518C0027A3212003931
:10050000D00220C50C30C5FD754F00755000120F8C
:10051000492220860FC0027A32120039D00220868A
:10052000033086FD22300104C201800122E53B94A4
:100530006450024002800302063375F064E53B8498
:100540009401600A75F064E53B84940260651210C2
:1005500036C28ED2A5C2A6C2A5740312040D7401C0
:1005600012040D749312040D748412040D7401129C
:10057000040D754E00754D36754CB0D2A6D28E1254
:100580001036C28ED2A5C2A6C2A5740312040D7481
:100590000512040D740912040D741012040D740573
:1005A00012040D754E00754D27754C10D2A6D28ED3
:1005B000020618121036C28ED2A5C2A6C2A57403B6
:1005C00012040D740112040D74C712040D74141278
:1005D000040D740112040D754E00754D13754C8891
:1005E000D2A6D28E121036C28ED2A5C2A6C2A574D1
:1005F0000312040D740512040D740912040D741015
:1006000012040D740512040D754E00754D27754CBE
:1006100010D2A6D28E02061875F064E53B95F0E57F
:10062000F0600D75F0C8E53B95F0E5F060028003E1
:1006300002052C75F064E53B84E5F09414502760C6
:1006400025E475F064E53B84E5F0940A401575F007
:1006500064E53B84E5F0940A6000E5F09414400002
:10066000020A27020827E53B75F06484E5F075F07F
:100670000A84B40234121036C28ED2A5C2A6C2A514
:10068000740312040D740312040D74EF12040D743C
:10069000D012040D740312040D754E00754D2775AC
:1006A0004C10D2A6D28E020824B40334121036C2E3
:1006B0008ED2A5C2A6C2A5740312040D740412043E
:1006C0000D741612040D74E012040D740412040D5E
:1006D000754E00754D23754C28D2A6D28E02082483
:1006E000B40434121036C28ED2A5C2A6C2A57403B9
:1006F00012040D740412040D743D12040D74F012F2
:10070000040D740412040D754E00754D1F754C4098
:10071000D2A6D28E020824B40534121036C28ED26C
:10072000A5C2A6C2A5740312040D740412040D74AC
:100730005112040D747812040D740412040D754ED8
:1007400000754D23754C28D2A6D28E020824B4061B
:1007500034121036C28ED2A5C2A6C2A574031204EA
:100760000D740412040D747412040D74A012040D9F
:10077000740412040D754E00754D27754C10D2A6E9
:10078000D28E020824B40734121036C28ED2A5C20B
:10079000A6C2A5740312040D740412040D749B12F6
:1007A000040D74B012040D740412040D754E00751E
:1007B0004D32754CC8D2A6D28E020824B408341229
:1007C0001036C28ED2A5C2A6C2A5740312040D743F
:1007D0000412040D74C612040D74A812040D7404DE
:1007E00012040D754E00754D23754C28D2A6D28E7D
:1007F000020824121036C28ED2A5C2A6C2A5740366
:1008000012040D740412040D74ED12040D74B81268
:10081000040D740412040D754E00754D1F754C4087
:10082000D2A6D28E02082775F064E53B84E5F07508
:10083000F00A84E5F0B40003020A24B40134121073
:1008400036C28ED2A5C2A6C2A5740312040D7401CD
:1008500012040D749312040D748412040D740112A9
:10086000040D754E00754D36754CB0D2A6D28E0271
:100870000A24B40234121036C28ED2A5C2A6C2A572
:10088000740312040D740112040D74C712040D7464
:100890001412040D740112040D754E00754D13757C
:1008A0004C88D2A6D28E020A24B40334121036C267
:1008B0008ED2A5C2A6C2A5740312040D740112043F
:1008C0000D74D612040D746812040D740112040D17
:1008D000754E00754D23754C28D2A6D28E020A247F
:1008E000B40434121036C28ED2A5C2A6C2A57403B7
:1008F00012040D740112040D74F412040D7400122C
:10090000040D740112040D754E00754D1B754C5885
:10091000D2A6D28E020A24B40534121036C28ED268
:10092000A5C2A6C2A5740312040D740212040D74AC
:100930000712040D748812040D740212040D754E12
:1009400000754D1B754C58D2A6D28E020A24B406EF
:1009500034121036C28ED2A5C2A6C2A574031204E8
:100960000D740212040D742612040D74C812040DC5
:10097000740212040D754E00754D1F754C40D2A6C1
:10098000D28E020A24B40734121036C28ED2A5C207
:10099000A6C2A5740312040D740212040D7436125B
:1009A000040D746812040D740212040D754E007566
:1009B0004D23754C28D2A6D28E020A24B4083412D4
:1009C0001036C28ED2A5C2A6C2A5740312040D743D
:1009D0000212040D745712040D749C12040D74025B
:1009E00012040D754E00754D1B754C58D2A6D28E53
:1009F000020A24121036C28ED2A5C2A6C2A5740362
:100A000012040D740212040D746912040D74301274
:100A1000040D740212040D754E00754D1F754C4087
:100A2000D2A6D28E020C5275F064E53B84E5F0B498
:100A30000A34121036C28ED2A5C2A6C2A574031201
:100A4000040D740212040D748412040D74881204CF
:100A50000D740212040D754E00754D17754C70D251
:100A6000A6D28E020C4FB40B34121036C28ED2A511
:100A7000C2A6C2A5740312040D740212040D749B65
:100A800012040D74F812040D740212040D754E0058
:100A9000754D1F754C40D2A6D28E020C4FB40C344B
:100AA000121036C28ED2A5C2A6C2A5740312040DBE
:100AB000740212040D74B712040D745012040D74F4
:100AC0000212040D754E00754D1F754C40D2A6D212
:100AD0008E020C4FB40D34121036C28ED2A5C2A6AF
:100AE000C2A5740312040D740212040D74CE120414
:100AF0000D74C012040D740212040D754E00754D74
:100B00002E754CE0D2A6D28E020C4FB40E341210C9
:100B100036C28ED2A5C2A6C2A5740312040D7402F9
:100B200012040D74F512040D74D012040D74021227
:100B3000040D754E00754D36754CB0D2A6D28E029E
:100B40000C4FB40F34121036C28ED2A5C2A6C2A565
:100B5000740312040D740312040D742812040D742E
:100B60009812040D740312040D754E00754D237513
:100B70004C28D2A6D28E020C4FB41034121036C2BA
:100B80008ED2A5C2A6C2A5740312040D740312046A
:100B90000D744712040D74D812040D740312040D61
:100BA000754E00754D32754CC8D2A6D28E020C4FD0
:100BB000B41134121036C28ED2A5C2A6C2A57403D7
:100BC00012040D740312040D747612040D74B8121D
:100BD000040D740312040D754E00754D2E754C20D6
:100BE000D2A6D28E020C4FB41234121036C28ED25C
:100BF000A5C2A6C2A5740312040D740312040D74D9
:100C0000A112040D74B012040D740312040D754E7C
:100C100000754D27754C10D2A6D28E020C4F1210C3
:100C200036C28ED2A5C2A6C2A5740312040D7403E7
:100C300012040D74C812040D74C012040D74031252
:100C4000040D754E00754D27754C10D2A6D28E023C
:100C50000C5202052C43CE9043CF90D2A1D2A5C214
:100C6000A0C2A653890F438910758DFC758B8C75B6
:100C7000F5FC75F38CD2ABD28E75A5A075A43A7530
:100C8000AD8075AC0043A440E5A420E6FB22C0E0A3
:100C9000E8540F443012007ED0E02275F0648444A2
:100CA0003012007EE5F075F00A84443012007EE5D3
:100CB000F0443012007E227401120083C0027A02D6
:100CC000120039D002C0E07401141200BFD0E0C09D
:100CD00083C082C0E090037D1200B2D0E0D082D009
:100CE00083C0E07406141200BFD0E0C083C082C08D
:100CF000E09003821200B2D0E0D082D083C0E074D2
:100D00000A141200BFD0E0C083C082C0E090038408
:100D10001200B2D0E0D082D083C0E074011412007F
:100D2000BDD0E0C083C082C0E09003761200B2D094
:100D3000E0D082D08322C0E07405141200BFD0E05E
:100D4000C000A839120C8ED000C0E0740714120045
:100D5000BFD0E0C000A8381200C4D00022C0E074A8
:100D600001141200BFD0E0C083C082C0E0900360D5
:100D70001200B2D0E0D082D083C0E074061412001A
:100D8000BFD0E0E534120C9BC0E0740A141200BF1F
:100D9000D0E0C083C082C0E09003661200B2D0E011
:100DA000D082D083C0E0740E141200BFD0E0E535CD
:100DB000120C9BC0E07401141200BDD0E0C083C0CF
:100DC00082C0E090036B1200B2D0E0D082D083C02A
:100DD000E07406141200BDD0E0E536120C9BC0E0B2
:100DE000740A141200BDD0E0C083C082C0E090033A
:100DF000711200B2D0E0D082D083C0E0740E141221
:100E000000BDD0E0E537120C9B22C0E0740E141236
:100E100000BFD0E0C000A846120C8ED000C000A8D1
:100E2000451200C4D00022740F1200837480120097
:100E300083745712007EC0027AFA120039D002740D
:100E40006512007EC0027AFA120039D002746C1268
:100E5000007EC0027AFA120039D002746312007E5A
:100E6000C0027AFA120039D002746F12007EC002FA
:100E70007AFA120039D002746D12007EC0027AFA3A
:100E8000120039D002746512007EC0027AFA120094
:100E900039D002742112007EC0027AFA120039D0D1
:100EA00002742012007EC0027AFA120039D0027455
:100EB0006012007EC0027AFA120039D00274EF127A
:100EC000007EC0027AFA120039D002742F12007E1E
:100ED000121011121011740C12008322C0A8C2AF9C
:100EE00075D108907F80E534F0A3E535F0A3E536B1
:100EF000F0A3E537F0A37455F0A374AAF0A375D15D
:100F00000043D24075D15075D1A075D10053D2BFE6
:100F1000D0A822907F84E493F8A3B8551FE493F8F7
:100F2000A3B8AA18907F80E493F534A3E493F53531
:100F3000A3E493F536A3E493F537A32275348275C1
:100F4000353C7536DC75371E22740112008320C5CE
:100F5000FDC0027A32120039D00220C5EC30C5FD46
:100F60000210FA22C29778011203F478801203F477
:100F7000E95403F54B78551203F4894AD297C0021D
:100F80007A0A120039D002AE4AAF4B22753D007585
:100F90003E00753F007540007D64120F647544008B
:100FA0007543008F428E411201B5121049DDEB7579
:100FB00041647542007543007544001202F77541A3
:100FC0004E75420B75430075440012026A7541105C
:100FD0007542277543007544001202F77541167576
:100FE00042007543007544001201B5853D3B120077
:100FF000F0120E0AC000A8461200DAD000C000A805
:10100000451200DAD000740D12047E740A12047EB8
:1010100022C0027AFA120039D002C0027AFA120013
:1010200039D002C0027AFA120039D002C0027AFA2C
:10103000120039D00222C0027AFA120039D002C05E
:10104000027AFA120039D00222784AD8FE22C0E091
:10105000C0D0E54C454D454E601C74FF154CB54C59
:1010600007154DB54D02154ED2A612040D2480F57C
:10107000AD43A440800CC28ED2A5C2A675AD8043FC
:10108000A440D0D0D0E03275C80075CDA975CC9AF7
:1010900075CBA975CA9AE4F530F531F532D2ADD2E7
:1010A000CAC20222C2CFB290C0E0C0D00530E53043
:1010B00070020531C3E54F9530E55095319290E5CA
:1010C00030B4E831E531B4032CD2000532E532B456
:1010D0000505D201E4F532E4F530F531300216E5CC
:1010E000382401D4F538B4600A753800E539240194
:1010F000D4F539053AD0D0D0E03275817F1210870F
:10110000120088120466120C5575E60075E700D2CD
:10111000AF120F13754F00755000753300120E2774
:10112000121036C28ED2A5C2A6C2A5740312040D37
:10113000740012040D740012040D742D12040D7449
:101140000012040D754E00754D4E754C20D2A6D27E
:101150008E120D5D1204F61204861204A21204BE51
:101160001204DA120EDC2085E8C0027A321200394D
:10117000D0022085DC3085FD753301753A00D2023E
:10118000753800753900753A00120CB7C0E0740765
:10119000141200BDD0E0C083C082C0E09003C7122B
:1011A00000B2D0E0D082D083754FE87550031210A2
:1011B00036C28ED2A5C2A6C2A5740312040D740055
:1011C00012040D740012040D742D12040D7400121B
:1011D000040D754E00754D4E754C20D2A6D28E80F2
:1011E000030210FA1204F6120D36120F8C120525A6
:1011F000E53B9534501460124000E53B943250E4D6
:10120000E53A943C50DB60D940DA753302753A0018
:10121000120CB7C0E07407141200BDD0E0C083C048
:1012200082C0E09003D11200B2D0E0D082D08375AA
:101230004FC8755000121036C28ED2A5C2A6C2A5E4
:10124000740312040D740012040D744412040D741E
:10125000DD12040D740012040D754E00754D4E75AF
:101260004C20D2A6D28E1204F6120D36120F8C121A
:101270000525E53A9535500240EC753A03120CB756
:10128000C0E07407141200BDD0E0C083C082C0E08B
:101290009003D61200B2D0E0D082D083754FE875AB
:1012A0005003121036C28ED2A5C2A6C2A574031274
:1012B000040D740012040D748B12040D74CA120410
:1012C0000D740012040D754E00754D75754C30D2BD
:1012D000A6D28E1204F6120F8C120D36120525E5D9
:1012E0003B95365004600240EA753A04753A0012A4
:1012F0000CB7C0E07407141200BDD0E0C083C082F8
:10130000C0E09003E01200B2D0E0D082D083754FED
:10131000C8755000121036C28ED2A5C2A6C2A574DE
:101320000312040D740012040D74F012040D7463A2
:1013300012040D740012040D754E00754D59754C54
:10134000D8D2A6D28E1204F6120D36120F8C1205C8
:1013500025E53A9537500240EC753A0002135FC21A
:1013600087120CB7C083C082C0E09003E71200B2BE
:10137000D0E0D082D083754F00755000121036C275
:101380008ED2A5C2A6C2A5740312040D7401120464
:101390000D744812040D749A12040D740112040D98
:1013A000754E00754D6B754C6CD2A6D28E1204F63C
:1013B000120D36120F8C120525E53B943C50EE6061
:0C13C000EC4000753A007533000210FA92
:00000001FF
