:030000000211F4F6
:0100030032CA
:01000B0032C2
:0100130032BA
:03001B0002114887
:0100230032AA
:03002B0002119E21
:10002E00C00078B10000D8FCD00022C000C0017919
:10003E002D78A6D8FED9FADAF6D001D00022D2B3A6
:10004E0012002EC2B322A2E792B7A2E692B6A2E5A2
:10005E0092B5A2E492B412004C12002EA2E392B713
:10006E00A2E292B6A2E192B5A2E092B412004C22A4
:10007E00D2B2020054C2B2020054C2B374331200A0
:10008E008374331200837432120083742812008337
:10009E00740C1200837401120083C0027A021200E3
:1000AE0039D00222E493600612007EA380F6224429
:1000BE00404480020083C0E0E8C4540F4430120074
:1000CE007EE8540F443012007ED0E022C0E0E8C437
:1000DE00540F443012047EE8540F443012047ED084
:0200EE00E0220E
:1000F000C0E0C0D0C000C001C002E4F545F546F53F
:1001000047F548F5497A20E540A2E77904783DE6CD
:1001100033F608D9FA79057845E636D4F608D9F9E0
:10012000DAE5D002D001D000D0D0D0E022C0E0C0CB
:10013000D0C000C001C002E4F545F546F547F548DA
:10014000F5497A20E540A2E77904783DE633F608E0
:10015000D9FA79057845C0D0E6243320E70224D0C7
:1001600020E30224FDD0D033F608D9EADAD6D00253
:10017000D001D000D0D0D0E022C0E0C0D0C000C0BC
:1001800001C0027A207905C37849E613C0D030E770
:100190000224D030E30224FDF618D0D0D9EC790443
:1001A0007840E613F618D9FADADBD002D001D00095
:1001B000D0D0D0E022C0E0C0D0E53D2541F53DE5FE
:1001C0003E3542F53EE53F3543F53FE5403544F5E4
:1001D00040D0D0D0E022C0E0C0D0C3E53D9541F58D
:1001E0003DE53E9542F53EE53F9543F53FE54095BB
:1001F00044F540D0D0D0E022C0E0C0D0C3E53D956A
:1002000041E53E9542E53F9543E54095449203D054
:10021000D0D0E022C0E0C0D0C3E541953DE5429595
:100220003EE543953FE54495409203D0D0D0E0228F
:10023000C0E0C0D0C203C3E541953D7014E54295CE
:100240003E700EE543953F7008E54495407002D23C
:1002500003D0D0D0E0221202302003030202142285
:100260001202302003030201F822C0E0C0F0C0D027
:10027000C000C001C002C003E53D8541F0A4F8A95B
:10028000F0E53E8541F0A429F9E435F0FAE53D8535
:1002900042F0A429F9E5F03AFAE433FBE53F854161
:1002A000F0A42AFAE5F03BFBE53E8542F0A42AFAE9
:1002B000E5F03BFBE53D8543F0A42AFAE5F03BFB86
:1002C000E5408541F0A42BFBE53F8542F0A42BFBE4
:1002D000E53E8543F0A42BFBE53D8544F0A42BFBD4
:1002E0008B408A3F893E883DD003D002D001D000A8
:1002F000D0D0D0F0D0E022C0E0C0D0C000C001C05B
:1003000002C003C0047C20E4F8F9FAFBC3E53D33E6
:10031000F53DE53E33F53EE53F33F53FE54033F54A
:1003200040E833F8E933F9EA33FAEB33FBC3E895F5
:1003300041E99542EA9543EB95444013E89541F82D
:10034000E99542F9EA9543FAEB9544FB433D01DC1C
:10035000BBD004D003D002D001D000D0D0D0E02256
:1003600053546D703A0053546D3A0052546D703AC4
:100370000052546D3A0053746174653E00546D65CB
:100380003E003A00546D703E005265666C6F7720F7
:1003900054656D70657261747572653A0052656678
:1003A0006C6F772054696D653A00536F616B205410
:1003B000696D653A00536F616B2054656D706572AD
:1003C00061747572653A0052616D702D536F616B87
:1003D00000536F616B0052616D702D5065616B0051
:1003E0005265666C6F7700436F6F6C696E6700D201
:1003F00095C29422C0E079007A08E833F89296D248
:1004000094A295E933F9C294DAF0D0E0223392A4B1
:10041000D2A0A2A1C2A092E03392A4D2A0A2A1C273
:10042000A092E03392A4D2A0A2A1C2A092E0339203
:10043000A4D2A0A2A1C2A092E03392A4D2A0A2A171
:10044000C2A092E03392A4D2A0A2A1C2A092E033B3
:1004500092A4D2A0A2A1C2A092E03392A4D2A0A260
:10046000A1C2A092E02279DE78A6D8FED9FA43870D
:1004700080759852759B00759AF4759B1E22309971
:10048000FDC299F59922208225C0027A32120039E4
:10049000D0022082193082FD2081041535800205AA
:1004A00035E553B40005120F698003120FA0222016
:1004B0008325C0027A32120039D00220831930839A
:1004C000FD208104153480020534E553B400051283
:1004D0000F698003120FA022208425C0027A3212F5
:1004E0000039D0022084193084FD20810415378022
:1004F000020537E553B40005120F698003120FA0FF
:1005000022208625C0027A32120039D002208619B4
:100510003086FD208104153680020536E553B4008F
:1005200005120F698003120FA02220C518C0027A9D
:1005300032120039D00220C50C30C5FD754F007550
:10054000500012104322208022C0027A3212003959
:10055000D0022080163080FDE553B4000812100050
:100560007553018006120FD775530022208742C0B1
:10057000027A32120039D0022087363087FD1211FC
:1005800030C28ED2A5C2A6C2A5740312040D740196
:1005900012040D749312040D748412040D7401126C
:1005A000040D754E00754D17754C70D2A6D28EB2E3
:1005B0000422300104C201800122E53B9464500210
:1005C000400280030206C075F064E53B849401603C
:1005D0000A75F064E53B8494026065121130C28EA6
:1005E000D2A5C2A6C2A5740312040D740112040D93
:1005F000749312040D748412040D740112040D75A9
:100600004E00754D36754CB0D2A6D28E121130C246
:100610008ED2A5C2A6C2A5740312040D74051204DD
:100620000D740912040D741012040D740512040DDA
:10063000754E00754D27754C10D2A6D28E0206A5B8
:10064000121130C28ED2A5C2A6C2A5740312040D27
:10065000740112040D74C712040D741412040D7485
:100660000112040D754E00754D13754C88D2A6D23B
:100670008E121130C28ED2A5C2A6C2A57403120476
:100680000D740512040D740912040D741012040D7A
:10069000740512040D754E00754D27754C10D2A6C9
:1006A000D28E0206A575F064E53B95F0E5F0600D8D
:1006B00075F0C8E53B95F0E5F0600280030205B9EE
:1006C00075F064E53B84E5F0941450276025E475EB
:1006D000F064E53B84E5F0940A401575F064E53B71
:1006E00084E5F0940A6000E5F094144000020AB436
:1006F0000208B4E53B75F06484E5F075F00A84B453
:100700000234121130C28ED2A5C2A6C2A574031241
:10071000040D740312040D74EF12040D74D012044E
:100720000D740312040D754E00754D27754C10D2D3
:10073000A6D28E0208B1B40334121130C28ED2A5F3
:10074000C2A6C2A5740312040D740412040D74161B
:1007500012040D74E012040D740412040D754E00A1
:10076000754D23754C28D2A6D28E0208B1B404343C
:10077000121130C28ED2A5C2A6C2A5740312040DF6
:10078000740412040D743D12040D74F012040D74FF
:100790000412040D754E00754D1F754C40D2A6D243
:1007A0008E0208B1B40534121130C28ED2A5C2A691
:1007B000C2A5740312040D740412040D74511204C2
:1007C0000D747812040D740412040D754E00754DED
:1007D00023754C28D2A6D28E0208B1B40634121169
:1007E00030C28ED2A5C2A6C2A5740312040D740431
:1007F00012040D747412040D74A012040D7404120A
:10080000040D754E00754D27754C10D2A6D28E0280
:1008100008B1B40734121130C28ED2A5C2A6C2A547
:10082000740312040D740412040D749B12040D74ED
:10083000B012040D740412040D754E00754D32751E
:100840004CC8D2A6D28E0208B1B40834121130C2FC
:100850008ED2A5C2A6C2A5740312040D740412049C
:100860000D74C612040D74A812040D740412040D44
:10087000754E00754D23754C28D2A6D28E0208B154
:10088000121130C28ED2A5C2A6C2A5740312040DE5
:10089000740412040D74ED12040D74B812040D7476
:1008A0000412040D754E00754D1F754C40D2A6D232
:1008B0008E0208B475F064E53B84E5F075F00A84B7
:1008C000E5F0B40003020AB1B40134121130C28E53
:1008D000D2A5C2A6C2A5740312040D740112040DA0
:1008E000749312040D748412040D740112040D75B6
:1008F0004E00754D36754CB0D2A6D28E020AB1B4F8
:100900000234121130C28ED2A5C2A6C2A57403123F
:10091000040D740112040D74C712040D7414120432
:100920000D740112040D754E00754D13754C88D26F
:10093000A6D28E020AB1B40334121130C28ED2A5EF
:10094000C2A6C2A5740312040D740112040D74D65C
:1009500012040D746812040D740112040D754E001A
:10096000754D23754C28D2A6D28E020AB1B4043438
:10097000121130C28ED2A5C2A6C2A5740312040DF4
:10098000740112040D74F412040D740012040D7439
:100990000112040D754E00754D1B754C58D2A6D230
:1009A0008E020AB1B40534121130C28ED2A5C2A68D
:1009B000C2A5740312040D740212040D740712040C
:1009C0000D748812040D740212040D754E00754DDD
:1009D0001B754C58D2A6D28E020AB1B4063412113D
:1009E00030C28ED2A5C2A6C2A5740312040D740231
:1009F00012040D742612040D74C812040D74021230
:100A0000040D754E00754D1F754C40D2A6D28E0256
:100A10000AB1B40734121130C28ED2A5C2A6C2A543
:100A2000740312040D740212040D743612040D7452
:100A30006812040D740212040D754E00754D237575
:100A40004C28D2A6D28E020AB1B40834121130C298
:100A50008ED2A5C2A6C2A5740312040D740212049C
:100A60000D745712040D749C12040D740212040DBF
:100A7000754E00754D1B754C58D2A6D28E020AB128
:100A8000121130C28ED2A5C2A6C2A5740312040DE3
:100A9000740212040D746912040D743012040D7482
:100AA0000212040D754E00754D1F754C40D2A6D232
:100AB0008E020CDF75F064E53B84E5F0B40A341275
:100AC0001130C28ED2A5C2A6C2A5740312040D7441
:100AD0000212040D748412040D748812040D740241
:100AE00012040D754E00754D17754C70D2A6D28E3E
:100AF000020CDCB40B34121130C28ED2A5C2A6C2D5
:100B0000A5740312040D740212040D749B12040DDB
:100B100074F812040D740212040D754E00754D1F09
:100B2000754C40D2A6D28E020CDCB40C34121130BB
:100B3000C28ED2A5C2A6C2A5740312040D740212FD
:100B4000040D74B712040D745012040D74021204D3
:100B50000D754E00754D1F754C40D2A6D28E020CFD
:100B6000DCB40D34121130C28ED2A5C2A6C2A57457
:100B70000312040D740212040D74CE12040D74C01D
:100B800012040D740212040D754E00754D2E754C35
:100B9000E0D2A6D28E020CDCB40E34121130C28E1A
:100BA000D2A5C2A6C2A5740312040D740212040DCC
:100BB00074F512040D74D012040D740212040D7534
:100BC0004E00754D36754CB0D2A6D28E020CDCB4F8
:100BD0000F34121130C28ED2A5C2A6C2A574031260
:100BE000040D740312040D742812040D7498120479
:100BF0000D740312040D754E00754D23754C28D2EB
:100C0000A6D28E020CDCB41034121130C28ED2A5E2
:100C1000C2A6C2A5740312040D740312040D744716
:100C200012040D74D812040D740312040D754E00D5
:100C3000754D32754CC8D2A6D28E020CDCB411347C
:100C4000121130C28ED2A5C2A6C2A5740312040D21
:100C5000740312040D747612040D74B812040D742A
:100C60000312040D754E00754D2E754C20D2A6D280
:100C70008E020CDCB41234121130C28ED2A5C2A680
:100C8000C2A5740312040D740312040D74A112049E
:100C90000D74B012040D740312040D754E00754DE1
:100CA00027754C10D2A6D28E020CDC121130C28EE7
:100CB000D2A5C2A6C2A5740312040D740312040DBA
:100CC00074C812040D74C012040D740312040D755F
:100CD0004E00754D27754C10D2A6D28E020CDF0245
:100CE00005B943CE9043CF90D2A1D2A5C2A0C2A64F
:100CF00053890F438910758DFC758B8C75F5FC75C8
:100D0000F38CD2ABD28E75A5A075A43A75AD807563
:100D1000AC0043A440E5A420E6FB22C0E0E8540F69
:100D2000443012007ED0E02275F06484443012001A
:100D30007EE5F075F00A84443012007EE5F0443020
:100D400012007E227401120083C0027A021200395E
:100D5000D002C0E07401141200BFD0E0C083C08292
:100D6000C0E090037D1200B2D0E0D082D083C0E01A
:100D70007406141200BFD0E0C083C082C0E09003AC
:100D8000821200B2D0E0D082D083C0E0740A141284
:100D900000BFD0E0C083C082C0E09003841200B2E4
:100DA000D0E0D082D083C0E07401141200BDD0E046
:100DB000C083C082C0E09003761200B2D0E0D0823F
:100DC000D08322C0E07405141200BFD0E0C000A898
:100DD00039120D1BD000C0E07407141200BFD0E020
:100DE000C000A8381200C4D00022C0E07401141260
:100DF00000BFD0E0C083C082C0E09003601200B2A8
:100E0000D0E0D082D083C0E07406141200BFD0E0DE
:100E1000E534120D28C0E0740A141200BFD0E0C0FF
:100E200083C082C0E09003661200B2D0E0D082D0CE
:100E300083C0E0740E141200BFD0E0E535120D2817
:100E4000C0E07401141200BDD0E0C083C082C0E0D5
:100E500090036B1200B2D0E0D082D083C0E0740661
:100E6000141200BDD0E0E536120D28C0E0740A145B
:100E70001200BDD0E0C083C082C0E09003711200B8
:100E8000B2D0E0D082D083C0E0740E141200BDD086
:100E9000E0E537120D2822C0E0740E141200BFD016
:100EA000E0C000A846120D1BD000C000A8451200EB
:100EB000C4D00022740F1200837480120083745710
:100EC00012007EC0027AFA120039D0027465120054
:100ED0007EC0027AFA120039D002746C12007EC011
:100EE000027AFA120039D002746312007EC0027ACC
:100EF000FA120039D002746F12007EC0027AFA1220
:100F00000039D002746D12007EC0027AFA120039E4
:100F1000D002746512007EC0027AFA120039D00243
:100F2000742112007EC0027AFA120039D0027420B5
:100F300012007EC0027AFA120039D00274601200E8
:100F40007EC0027AFA120039D00274EF12007EC01D
:100F5000027AFA120039D002742F12007E12110B9D
:100F600012110B740C12008322C0A8C2AF75D108F5
:100F7000907F80E534F0A3E535F0A3E536F0A3E5F6
:100F800037F0A37455F0A374AAF0A375D10043D22F
:100F90004075D15075D1A075D10053D2BFD0A822D1
:100FA000C0A8C2AF75D108907F00E534F0A3E53545
:100FB000F0A3E536F0A3E537F0A37444F0A374BBC7
:100FC000F0A375D10043D24075D15075D1A075D131
:100FD0000053D2BFD0A822907F84E493F8A3B855E1
:100FE00048E493F8A3B8AA41907F80E493F534A332
:100FF000E493F535A3E493F536A3E493F537A32200
:10100000907F04E493F8A3B8442CE493F8A3B8BB0E
:1010100025907F00E493F534A3E493F535A3E4939E
:10102000F536A3E493F537A32275348275353C7504
:1010300036DC75371E2275348C75354B7536E67582
:10104000372322740112008320C5FDC0027A3212B8
:101050000039D00220C5EC30C5FD0211F422C29740
:1010600078011203F478801203F4E95403F54B7805
:10107000551203F4894AD297C0027A0A120039D075
:1010800002AE4AAF4B22753D00753E00753F0075BC
:1010900040007D6412105E7544007543008F428EDF
:1010A000411201B5121143DDEB75416475420075C3
:1010B00043007544001202F775414E75420B7543AB
:1010C0000075440012026A7541107542277543008D
:1010D0007544001202F7754116754200754300759C
:1010E00044001201B5853D3B1200F0120E97C0007E
:1010F000A8461200DAD000C000A8451200DAD000DD
:10110000740D12047E740A12047E22C0027AFA124E
:101110000039D002C0027AFA120039D002C0027A35
:10112000FA120039D002C0027AFA120039D0022233
:10113000C0027AFA120039D002C0027AFA120039DB
:10114000D00222784AD8FE22C0E0C0D0E54C454DFE
:10115000454E601C74FF154CB54C07154DB54D023E
:10116000154ED2A612040D2480F5AD43A440800C88
:10117000C28ED2A5C2A675AD8043A440D0D0D0E027
:101180003275C80075CDA975CC9A75CBA975CA9A68
:10119000E4F530F531F532D2ADD2CAC20222C2CF67
:1011A000B290C0E0C0D00530E53070020531C3E533
:1011B0004F9530E55095319290E530B4E831E53106
:1011C000B4032CD2000532E532B40505D201E4F5B2
:1011D00032E4F530F531300216E5382401D4F53823
:1011E000B4600A753800E5392401D4F539053AD0E0
:1011F000D0D0E03275817F1211811200881204660E
:10120000120CE275E60075E700D2AFD204754F000C
:10121000755000753300755300120FD7120EB47558
:101220004F00755000120DEA12052A1204861204AE
:10123000AF1204D812050112054612056C2085DF95
:10124000C0027A32120039D0022085D33085FD7574
:101250003301753A00D202C28ED2A5C2A6C2A574CD
:101260000312040D741812040D74CB12040D74A82B
:1012700012040D741812040D754E02754D0F754C45
:1012800058D2A6D28E12110B753800753900753AF6
:1012900000120D44C0E07407141200BDD0E0C083FA
:1012A000C082C0E09003C71200B2D0E0D082D083E9
:1012B000754FE8755003300433121130C28ED2A539
:1012C000C2A6C2A5740312040D740012040D7400AA
:1012D00012040D742D12040D740012040D754E00CD
:1012E000754D4E754C20D2A6D28E8036121130C26A
:1012F0008ED2A5C2A6C2A5740312040D74051204F1
:101300000D745712040D743012040D740512040D7F
:10131000754E00754DEA754C60D2A6D28E800302E0
:1013200011F412052A120DC31210861205B2E53B04
:101330009534501460124000E53B943250E4E53A95
:10134000943C50DB60D940DA753302753A00120DD7
:1013500044C0E07407141200BDD0E0C083C082C056
:10136000E09003D11200B2D0E0D082D083754FC894
:10137000755000300433121130C28ED2A5C2A6C2FD
:10138000A5740312040D740012040D744412040DAC
:1013900074DD12040D740012040D754E00754D4E6F
:1013A000754C20D2A6D28E8031121130C28ED2A5B9
:1013B000C2A6C2A5740312040D740612040D741A99
:1013C00012040D748012040D740612040D754E0083
:1013D000754D9C754C40D2A6D28E12052A120DC3B3
:1013E0001210861205B28000E53A9535500240EAA7
:1013F000753A03120D44C0E07407141200BDD0E02A
:10140000C083C082C0E09003D61200B2D0E0D08288
:10141000D083754FE8755003300433121130C28EFB
:10142000D2A5C2A6C2A5740312040D740012040D45
:10143000748B12040D74CA12040D740012040D751D
:101440004E00754D75754C30D2A6D28E803112117A
:1014500030C28ED2A5C2A6C2A5740312040D7406B2
:1014600012040D74B612040D74C012040D74061229
:10147000040D754E00754D75754C30D2A6D28E1286
:10148000052A121086120DC31205B28000E53B95A5
:10149000365004600240E8753A04753A00120D4473
:1014A000C0E07407141200BDD0E0C083C082C0E069
:1014B0009003E01200B2D0E0D082D083754F9075D7
:1014C0005001300433121130C28ED2A5C2A6C2A57B
:1014D000740312040D740012040D74F012040D74E0
:1014E0006312040D740012040D754E00754D59758C
:1014F0004CD8D2A6D28E8031121130C28ED2A5C263
:10150000A6C2A5740312040D741912040D748E1270
:10151000040D74F812040D741912040D754E007543
:101520004D75754C30D2A6D28E12052A120DC312FB
:1015300010861205B28000E53A9537500240EA75F0
:101540003A00021545120D44C083C082C0E09003EA
:10155000E71200B2D0E0D082D083754F0075500002
:10156000753305300433121130C28ED2A5C2A6C223
:10157000A5740312040D740112040D744812040DB5
:10158000749A12040D740112040D754E00754D6BA2
:10159000754C6CD2A6D28E8031121130C28ED2A57B
:1015A000C2A6C2A5740312040D741912040D74F0BE
:1015B00012040D74A012040D741912040D754E005E
:1015C000754DEA754C60D2A6D28E12052A120DC353
:1015D0001210861205B28000E53B943C50EC60EAA4
:1015E0004000C28ED2A5C2A6C2A5740312040D7417
:1015F0001612040D74BC12040D745012040D7416EE
:1016000012040D754E02754D0F754C58D2A6D28E30
:1016100012110B12110B12110B12110B12110B756F
:081620003A007533000211F4D9
:00000001FF
