:0300000002077183
:0100030032CA
:01000B0032C2
:0100130032BA
:03001B000206D901
:0100230032AA
:03002B0002072D9C
:10002E00C00078B10000D8FCD00022C000C0017919
:10003E002D78A6D8FED9FADAF6D001D00022D2B3A6
:10004E0012002EC2B322A2E792B7A2E692B6A2E5A2
:10005E0092B5A2E492B412004C12002EA2E392B713
:10006E00A2E292B6A2E192B5A2E092B412004C22A4
:10007E00D2B2020054C2B2020054C2B374331200A0
:10008E008374331200837432120083742812008337
:10009E00740C1200837401120083C0027A021200E3
:1000AE0039D00222E493600612007EA380F6224429
:1000BE00404480020083C0E0E8C4540F4430120074
:1000CE007EE8540F443012007ED0E022C0E0E8C437
:1000DE00540F443012047EE8540F443012047ED084
:0200EE00E0220E
:1000F000C0E0C0D0C000C001C002E4F543F544F543
:1001000045F546F5477A20E53EA2E77904783BE6D7
:1001100033F608D9FA79057843E636D4F608D9F9E2
:10012000DAE5D002D001D000D0D0D0E022C0E0C0CB
:10013000D0C000C001C002E4F543F544F545F546E2
:10014000F5477A20E53EA2E77904783BE633F608E6
:10015000D9FA79057843C0D0E6243320E70224D0C9
:1001600020E30224FDD0D033F608D9EADAD6D00253
:10017000D001D000D0D0D0E022C0E0C0D0C000C0BC
:1001800001C0027A207905C37847E613C0D030E772
:100190000224D030E30224FDF618D0D0D9EC790443
:1001A000783EE613F618D9FADADBD002D001D00097
:1001B000D0D0D0E022C0E0C0D0E53B253FF53BE504
:1001C0003C3540F53CE53D3541F53DE53E3542F5F4
:1001D0003ED0D0D0E022C0E0C0D0C3E53B953FF593
:1001E0003BE53C9540F53CE53D9541F53DE53E95CB
:1001F00042F53ED0D0D0E022C0E0C0D0C3E53B9570
:100200003FE53C9540E53D9541E53E95429202D063
:10021000D0D0E022C0E0C0D0C3E53F953BE540959B
:100220003CE541953DE542953E9202D0D0D0E0229A
:10023000C0E0C0D0C202C3E53F953B7014E54095D5
:100240003C700EE541953D7008E542953E7002D246
:1002500002D0D0D0E0221202302002030202142287
:100260001202302002030201F822C0E0C0F0C0D028
:10027000C000C001C002C003E53B853FF0A4F8A95F
:10028000F0E53C853FF0A429F9E435F0FAE53B853B
:1002900040F0A429F9E5F03AFAE433FBE53D853F67
:1002A000F0A42AFAE5F03BFBE53C8540F0A42AFAED
:1002B000E5F03BFBE53B8541F0A42AFAE5F03BFB8A
:1002C000E53E853FF0A42BFBE53D8540F0A42BFBEC
:1002D000E53C8541F0A42BFBE53B8542F0A42BFBDC
:1002E0008B3E8A3D893C883BD003D002D001D000B0
:1002F000D0D0D0F0D0E022C0E0C0D0C000C001C05B
:1003000002C003C0047C20E4F8F9FAFBC3E53B33E8
:10031000F53BE53C33F53CE53D33F53DE53E33F556
:100320003EE833F8E933F9EA33FAEB33FBC3E895F7
:100330003FE99540EA9541EB95424013E8953FF837
:10034000E99540F9EA9541FAEB9542FB433B01DC24
:10035000BBD004D003D002D001D000D0D0D0E02256
:1003600053546D703A0053546D3A0052546D703AC4
:100370000052546D3A0053746174653A00546D65CF
:100380003A003A00546D703A005265666C6F7720FF
:1003900054656D70657261747572653A0052656678
:1003A0006C6F772054696D653A00536F616B205410
:1003B000696D653A00536F616B2054656D706572AD
:1003C00061747572653A0052616D702D536F616B87
:1003D00000536F616B0052616D702D5065616B0051
:1003E0005265666C6F7700436F6F6C696E6700D201
:1003F00095C29422C0E079007A08E833F89296D248
:1004000094A295E933F9C294DAF0D0E022339296BF
:10041000D294A295C29492E0339296D294A295C2BD
:100420009492E0339296D294A295C29492E0339241
:1004300096D294A295C29492E0339296D294A295C9
:10044000C29492E0339296D294A295C29492E033F1
:100450009296D294A295C29492E0339296D294A2AC
:1004600095C29492E02279DE78A6D8FED9FA438725
:1004700080759852759B00759AF4759B1E22309971
:10048000FDC299F59922208218C0027A32120039F1
:10049000D00220820C3082FD2080041534800205B9
:1004A0003422208318C0027A32120039D00220830D
:1004B0000C3083FD20800415338002053322208414
:1004C00018C0027A32120039D00220840C3084FD28
:1004D00020800415368002053622208618C0027A54
:1004E00032120039D00220860C3086FD208004159F
:1004F00035800205352220C512C0027A3212003939
:10050000D00220C50630C5FD12058F2275F0648427
:10051000443012007EE5F075F00A84443012007E0B
:10052000E5F0443012007E2275D108907F80E533DB
:10053000F0A3E534F0A3E535F0A3E536F0A3745558
:10054000F0A374AAF0A375D10043D24075D15075C1
:10055000D1A075D10053D2BF22907F84E493F8A339
:10056000B8551FE493F8A3B8AA18907F80E493F5D8
:1005700033A3E493F534A3E493F535A3E493F5367C
:10058000A32275338275343C7535DC75361E2274B2
:100590000112008320C5FDC0027A32120039D00258
:1005A00020C5EC30C5FD02077122C2977801120305
:1005B000F478801203F4E95403F54978551203F4F2
:1005C0008948D29785483B85493C753D00753E007A
:1005D000753FE875400375410075420012026A7567
:1005E0003F297540007541007542001202F7120064
:1005F000F0C000A8431200DAD000740D12047E741B
:100600000A12047ED0E022C0E07401141200BFD0B0
:10061000E0C083C082C0E09003601200B2D0E0D09E
:1006200082D083C0E07406141200BFD0E0E533121C
:10063000050CC0E0740A141200BFD0E0C083C08271
:10064000C0E09003661200B2D0E0D082D083C0E058
:10065000740E141200BFD0E0E53412050CC0E07433
:1006600001141200BDD0E0C083C082C0E090036BD3
:100670001200B2D0E0D082D083C0E0740614120021
:10068000BDD0E0E53512050CC0E0740A141200BDBF
:10069000D0E0C083C082C0E09003711200B2D0E00D
:1006A000D082D083C0E0740E141200BDD0E0E536D5
:1006B00012050C22C0027AFA120039D002C0027A66
:1006C000FA120039D002C0027AFA120039D002C000
:1006D000027AFA120039D00222C0E0C0D0E54A45C1
:1006E0004B454C601E74FF154AB54A07154BB54B78
:1006F00002154CD2A612040DF5802480F5AD43A45A
:1007000040800AC28EC2A675AD8043A440D0D0D02E
:10071000E03275C80075CDA975CC9A75CBA975CA9C
:100720009AE4F530F531D2ADD2CAC20122C2CFB2BD
:1007300090C0E0C0D00530E53070020531E530B43E
:10074000E82AE531B40325D200E4F530F531300173
:100750001BE5372401D4F537B4600A753700E53856
:100760002401D4F538E5392401D4F539D0D0D0E0CE
:100770003275817F1207121203EF1200881204668D
:1007800075E60075E700D2AF12008812055912060F
:10079000071204F61204861204A21204BE1204DA2E
:1007A0001205282085E8C0027A32120039D00220D2
:1007B00085DC3085FD0207B8753201753900D2013C
:1007C00080007537007538007401120083C0E07432
:1007D00001141200BFD0E0C083C082C0E090037D4E
:1007E0001200B2D0E0D082D083C000A8381200C47A
:1007F000D000C083C082C0E09003821200B2D0E07B
:10080000D082D083C000A8371200C4D000C0E074EA
:100810000A141200BFD0E0C083C082C0E0900384FD
:100820001200B2D0E0D082D083C0E0740E14120067
:10083000BFD0E0E53A12050CC0E07401141200BD0F
:10084000D0E0C083C082C0E09003761200B2D0E056
:10085000D082D083C0E07407141200BDD0E0C08302
:10086000C082C0E09003C71200B2D0E0D082D08333
:10087000C0E07405141200BFD0E0C000A838120018
:10088000C4D000C0E07407141200BFD0E0C000A8BC
:10089000371200C4D0001204F6E5339533500460DB
:1008A0000240CD7532028000753900740112008358
:1008B000C0E07401141200BFD0E0C083C082C0E069
:1008C00090037D1200B2D0E0D082D083C000A8385F
:1008D0001200C4D000C083C082C0E0900382120026
:1008E000B2D0E0D082D083C000A8371200C4D000BC
:1008F000C0E0740A141200BFD0E0C083C082C0E020
:100900009003841200B2D0E0D082D083C0E0740E95
:10091000141200BFD0E0E53A12050CC083C082C0BB
:10092000E09003761200B2D0E0D082D083C0E074B1
:1009300007141200BDD0E0C083C082C0E09003D194
:100940001200B2D0E0D082D0831204F6D287120611
:10095000B4C2877D00E5349539B400EDC0E074057C
:10096000141200BFD0E0C000A8381200C4D000C0EC
:10097000E07407141200BFD0E0C083C082C0E090D2
:1009800003821200B2D0E0D082D083C0E074081499
:100990001200BFD0E0C000A8371200C4D000C002CF
:1009A0007AFA120039D0020DBD10AAE5349539B497
:1009B00000977539000209B8D2877401120083C00C
:1009C000E07401141200BFD0E0C083C082C0E09088
:1009D000037D1200B2D0E0D082D083C000A83812CC
:1009E00000C4D000C083C082C0E09003821200B275
:1009F000D0E0D082D083C000A8371200C4D000C09D
:100A0000E0740A141200BFD0E0C083C082C0E0903E
:100A100003841200B2D0E0D082D083C0E0740E1400
:100A20001200BFD0E0E53A12050CC0E074011412C8
:100A300000BDD0E0C083C082C0E09003761200B257
:100A4000D0E0D082D083C0E07407141200BDD0E0A3
:100A5000C083C082C0E09003D61200B2D0E0D08242
:100A6000D0831204F6C0E07405141200BFD0E0C0B9
:100A700000A8381200C4D000C083C082C0E0900338
:100A8000821200B2D0E0D082D083C000A83712001A
:100A9000C4D000E53A95355004600240C575390070
:100AA000020AA37401120083C0E07401141200BF93
:100AB000D0E0C083C082C0E090037D1200B2D0E0DD
:100AC000D082D083C000A8381200C4D000C083C038
:100AD00082C0E09003821200B2D0E0D082D083C006
:100AE000E07407141200BFD0E0C000A8371200C4A1
:100AF000D000C0E0740A141200BFD0E0C083C082EE
:100B0000C0E09003841200B2D0E0D082D083C0E075
:100B1000740E141200BFD0E0E53A12050CC0E07468
:100B200001141200BDD0E0C083C082C0E090037603
:100B30001200B2D0E0D082D083C0E074071412005B
:100B4000BDD0E0C083C082C0E09003E01200B2D00C
:100B5000E0D082D0831204F6D2871206B4C2877D19
:100B600000E5369539B400EDC0E07405141200BFFD
:100B7000D0E0C000A8381200C4D000C0E074071450
:100B80001200BFD0E0C000A8371200C4D000C002DD
:100B90007AFA120039D0020DBD10C6E5369539B487
:100BA00000B3753900020BA8C2877401120083C01C
:100BB000E07401141200BFD0E0C083C082C0E09096
:100BC000037D1200B2D0E0D082D083C0E07405145F
:100BD0001200BFD0E0C000A8381200C4D000C0E0AE
:100BE0007406141200BFD0E0C083C082C0E090033E
:100BF000821200B2D0E0D082D083C0E07407141219
:100C000000BFD0E0C000A8371200C4D000C0E0741C
:100C10000A141200BFD0E0C083C082C0E0900384F9
:100C20001200B2D0E0D082D083C0E0740E14120063
:100C3000BFD0E0E53A12050CC0E07401141200BD0B
:100C4000D0E0C083C082C0E09003761200B2D0E052
:100C5000D082D083C0E07407141200BDD0E0C083FE
:100C6000C082C0E09003E71200B2D0E0D082D0830F
:100C70001204F6C0E07405141200BFD0E0C000A852
:100C8000381200C4D000C0E07407141200BFD0E0D6
:100C9000C083C082C0E09003821200B2D0E0D08254
:100CA000D083C0E07408141200BFD0E0C000A837A1
:100CB0001200C4D000E53A943C50B560B3400075D2
:050CC00039000207717C
:00000001FF
