:030000000218F1F2
:0100030032CA
:01000B0032C2
:0100130032BA
:03001B0002184583
:0100230032AA
:03002B0002189B1D
:10002E00C00078B10000D8FCD00022C000C0017919
:10003E002D78A6D8FED9FADAF6D001D00022D2B3A6
:10004E0012002EC2B322A2E792B7A2E692B6A2E5A2
:10005E0092B5A2E492B412004C12002EA2E392B713
:10006E00A2E292B6A2E192B5A2E092B412004C22A4
:10007E00D2B2020054C2B2020054C2B374331200A0
:10008E008374331200837432120083742812008337
:10009E00740C1200837401120083C0027A021200E3
:1000AE0039D00222E493600612007EA380F6224429
:1000BE00404480020083C0E0E8C4540F4430120074
:1000CE007EE8540F443012007ED0E022C0E0E8C437
:1000DE00540F443012047EE8540F443012047ED084
:0200EE00E0220E
:1000F000C0E0C0D0C000C001C002E4F545F546F53F
:1001000047F548F5497A20E540A2E77904783DE6CD
:1001100033F608D9FA79057845E636D4F608D9F9E0
:10012000DAE5D002D001D000D0D0D0E022C0E0C0CB
:10013000D0C000C001C002E4F545F546F547F548DA
:10014000F5497A20E540A2E77904783DE633F608E0
:10015000D9FA79057845C0D0E6243320E70224D0C7
:1001600020E30224FDD0D033F608D9EADAD6D00253
:10017000D001D000D0D0D0E022C0E0C0D0C000C0BC
:1001800001C0027A207905C37849E613C0D030E770
:100190000224D030E30224FDF618D0D0D9EC790443
:1001A0007840E613F618D9FADADBD002D001D00095
:1001B000D0D0D0E022C0E0C0D0E53D2541F53DE5FE
:1001C0003E3542F53EE53F3543F53FE5403544F5E4
:1001D00040D0D0D0E022C0E0C0D0C3E53D9541F58D
:1001E0003DE53E9542F53EE53F9543F53FE54095BB
:1001F00044F540D0D0D0E022C0E0C0D0C3E53D956A
:1002000041E53E9542E53F9543E54095449203D054
:10021000D0D0E022C0E0C0D0C3E541953DE5429595
:100220003EE543953FE54495409203D0D0D0E0228F
:10023000C0E0C0D0C203C3E541953D7014E54295CE
:100240003E700EE543953F7008E54495407002D23C
:1002500003D0D0D0E0221202302003030202142285
:100260001202302003030201F822C0E0C0F0C0D027
:10027000C000C001C002C003E53D8541F0A4F8A95B
:10028000F0E53E8541F0A429F9E435F0FAE53D8535
:1002900042F0A429F9E5F03AFAE433FBE53F854161
:1002A000F0A42AFAE5F03BFBE53E8542F0A42AFAE9
:1002B000E5F03BFBE53D8543F0A42AFAE5F03BFB86
:1002C000E5408541F0A42BFBE53F8542F0A42BFBE4
:1002D000E53E8543F0A42BFBE53D8544F0A42BFBD4
:1002E0008B408A3F893E883DD003D002D001D000A8
:1002F000D0D0D0F0D0E022C0E0C0D0C000C001C05B
:1003000002C003C0047C20E4F8F9FAFBC3E53D33E6
:10031000F53DE53E33F53EE53F33F53FE54033F54A
:1003200040E833F8E933F9EA33FAEB33FBC3E895F5
:1003300041E99542EA9543EB95444013E89541F82D
:10034000E99542F9EA9543FAEB9544FB433D01DC1C
:10035000BBD004D003D002D001D000D0D0D0E02256
:1003600053546D703A0053546D3A0052546D703AC4
:100370000052546D3A0053746174653E00546D65CB
:100380003E003A00546D703E005265666C6F7720F7
:1003900054656D70657261747572653A0052656678
:1003A0006C6F772054696D653A00536F616B205410
:1003B000696D653A00536F616B2054656D706572AD
:1003C00061747572653A0052616D702D536F616B87
:1003D00000536F616B0052616D702D5065616B0051
:1003E0005265666C6F7700436F6F6C696E6700D201
:1003F00095C29422C0E079007A08E833F89296D248
:1004000094A295E933F9C294DAF0D0E0223392A4B1
:10041000D2A0A2A1C2A092E03392A4D2A0A2A1C273
:10042000A092E03392A4D2A0A2A1C2A092E0339203
:10043000A4D2A0A2A1C2A092E03392A4D2A0A2A171
:10044000C2A092E03392A4D2A0A2A1C2A092E033B3
:1004500092A4D2A0A2A1C2A092E03392A4D2A0A260
:10046000A1C2A092E02279DE78A6D8FED9FA43870D
:1004700080759852759B00759AF4759B1E22309971
:10048000FDC299F59922208225C0027A32120039E4
:10049000D0022082193082FD2081041535800205AA
:1004A00035E553B40005121666800312169D22200E
:1004B0008325C0027A32120039D00220831930839A
:1004C000FD208104153480020534E553B400051283
:1004D0001666800312169D22208425C0027A3212ED
:1004E0000039D0022084193084FD20810415378022
:1004F000020537E553B40005121666800312169DF7
:1005000022208625C0027A32120039D002208619B4
:100510003086FD208104153680020536E553B4008F
:1005200005121666800312169D2220C518C0027A95
:1005300032120039D00220C50C30C5FD754F007550
:10054000500012174022208022C0027A3212003955
:10055000D0022080163080FDE553B400081216FD4D
:1005600075530180061216D47553002220860FC0E1
:10057000027A32120039D0022086033086FD223002
:100580000104C201800122E53B94645002400280D4
:100590000302068D75F064E53B849401600A75F0F2
:1005A00064E53B849402606512182DC28ED2A5C208
:1005B000A6C2A5740312040D740112040D749312E3
:1005C000040D748412040D740112040D754E00752F
:1005D0004D36754CB0D2A6D28E12182DC28ED2A531
:1005E000C2A6C2A5740312040D740512040D740989
:1005F00012040D741012040D740512040D754E00D2
:10060000754D27754C10D2A6D28E02067212182D87
:10061000C28ED2A5C2A6C2A5740312040D74011223
:10062000040D74C712040D741412040D7401120425
:100630000D754E00754D13754C88D2A6D28E1218CA
:100640002DC28ED2A5C2A6C2A5740312040D7405D4
:1006500012040D740912040D741012040D740512A5
:10066000040D754E00754D27754C10D2A6D28E0222
:10067000067275F064E53B95F0E5F0600D75F0C825
:10068000E53B95F0E5F06002800302058675F064B5
:10069000E53B84E5F0941450276025E475F064E5AB
:1006A0003B84E5F0940A401575F064E53B84E5F081
:1006B000940A6000E5F094144000020A8102088167
:1006C000E53B75F06484E5F075F00A84B4023412F9
:1006D000182DC28ED2A5C2A6C2A5740312040D7431
:1006E0000312040D74EF12040D74D012040D740380
:1006F00012040D754E00754D27754C10D2A6D28E82
:1007000002087EB4033412182DC28ED2A5C2A6C22E
:10071000A5740312040D740412040D741612040D52
:1007200074E012040D740412040D754E00754D230F
:10073000754C28D2A6D28E02087EB4043412182D2D
:10074000C28ED2A5C2A6C2A5740312040D740412EF
:10075000040D743D12040D74F012040D740412049F
:100760000D754E00754D1F754C40D2A6D28E0208F5
:100770007EB4053412182DC28ED2A5C2A6C2A574AD
:100780000312040D740412040D745112040D7478D4
:1007900012040D740412040D754E00754D23754C32
:1007A00028D2A6D28E02087EB4063412182DC28E2C
:1007B000D2A5C2A6C2A5740312040D740412040DBE
:1007C000747412040D74A012040D740412040D75D7
:1007D0004E00754D27754C10D2A6D28E02087EB4FD
:1007E000073412182DC28ED2A5C2A6C2A574031258
:1007F000040D740412040D749B12040D74B01204E1
:100800000D740412040D754E00754D32754CC8D22E
:10081000A6D28E02087EB4083412182DC28ED2A53C
:10082000C2A6C2A5740312040D740412040D74C68A
:1008300012040D74A812040D740412040D754E00F8
:10084000754D23754C28D2A6D28E02087E12182D23
:10085000C28ED2A5C2A6C2A5740312040D740412DE
:10086000040D74ED12040D74B812040D7404120416
:100870000D754E00754D1F754C40D2A6D28E0208E4
:100880008175F064E53B84E5F075F00A84E5F0B429
:100890000003020A7EB4013412182DC28ED2A5C202
:1008A000A6C2A5740312040D740112040D749312F0
:1008B000040D748412040D740112040D754E00753C
:1008C0004D36754CB0D2A6D28E020A7EB4023412D6
:1008D000182DC28ED2A5C2A6C2A5740312040D742F
:1008E0000112040D74C712040D741412040D740166
:1008F00012040D754E00754D13754C88D2A6D28E1C
:10090000020A7EB4033412182DC28ED2A5C2A6C22A
:10091000A5740312040D740112040D74D612040D93
:10092000746812040D740112040D754E00754D2388
:10093000754C28D2A6D28E020A7EB4043412182D29
:10094000C28ED2A5C2A6C2A5740312040D740112F0
:10095000040D74F412040D740012040D74011204D9
:100960000D754E00754D1B754C58D2A6D28E020ADD
:100970007EB4053412182DC28ED2A5C2A6C2A574AB
:100980000312040D740212040D740712040D74880E
:1009900012040D740212040D754E00754D1B754C3A
:1009A00058D2A6D28E020A7EB4063412182DC28EF8
:1009B000D2A5C2A6C2A5740312040D740212040DBE
:1009C000742612040D74C812040D740212040D75FD
:1009D0004E00754D1F754C40D2A6D28E020A7EB4D1
:1009E000073412182DC28ED2A5C2A6C2A574031256
:1009F000040D740212040D743612040D746812048E
:100A00000D740212040D754E00754D23754C28D2DD
:100A1000A6D28E020A7EB4083412182DC28ED2A538
:100A2000C2A6C2A5740312040D740212040D7457F9
:100A300012040D749C12040D740212040D754E0004
:100A4000754D1B754C58D2A6D28E020A7E12182DF7
:100A5000C28ED2A5C2A6C2A5740312040D740212DE
:100A6000040D746912040D743012040D7402120422
:100A70000D754E00754D1F754C40D2A6D28E020CDE
:100A8000AC75F064E53B84E5F0B40A3412182DC26D
:100A90008ED2A5C2A6C2A5740312040D740212045C
:100AA0000D748412040D748812040D740212040D66
:100AB000754E00754D17754C70D2A6D28E020CA9DA
:100AC000B40B3412182DC28ED2A5C2A6C2A57403CF
:100AD00012040D740212040D749B12040D74F812AA
:100AE000040D740212040D754E00754D1F754C40B7
:100AF000D2A6D28E020CA9B40C3412182DC28ED2FA
:100B0000A5C2A6C2A5740312040D740212040D74CA
:100B1000B712040D745012040D740212040D754EB8
:100B200000754D1F754C40D2A6D28E020CA9B40D93
:100B30003412182DC28ED2A5C2A6C2A57403120407
:100B40000D740212040D74CE12040D74C012040D43
:100B5000740212040D754E00754D2E754CE0D2A630
:100B6000D28E020CA9B40E3412182DC28ED2A5C298
:100B7000A6C2A5740312040D740212040D74F512BA
:100B8000040D74D012040D740212040D754E00751C
:100B90004D36754CB0D2A6D28E020CA9B40F3412C9
:100BA000182DC28ED2A5C2A6C2A5740312040D745C
:100BB0000312040D742812040D749812040D7403AA
:100BC00012040D754E00754D23754C28D2A6D28E99
:100BD000020CA9B4103412182DC28ED2A5C2A6C21E
:100BE000A5740312040D740312040D744712040D4E
:100BF00074D812040D740312040D754E00754D3235
:100C0000754CC8D2A6D28E020CA9B4113412182D7C
:100C1000C28ED2A5C2A6C2A5740312040D7403121B
:100C2000040D747612040D74B812040D74031204CA
:100C30000D754E00754D2E754C20D2A6D28E020C2D
:100C4000A9B4123412182DC28ED2A5C2A6C2A574A0
:100C50000312040D740312040D74A112040D74B078
:100C600012040D740312040D754E00754D27754C5A
:100C700010D2A6D28E020CA912182DC28ED2A5C2F5
:100C8000A6C2A5740312040D740312040D74C812D5
:100C9000040D74C012040D740312040D754E00751A
:100CA0004D27754C10D2A6D28E020CAC02058630B0
:100CB0000104C201800122E53B946450024002809D
:100CC00003020DBD75F064E53B849401600A75F084
:100CD00064E53B849402606512182DC28ED2A5C2D1
:100CE000A6C2A5740312040D740112040D749312AC
:100CF000040D748412040D740112040D754E0075F8
:100D00004D36754CB0D2A6D28E12182DC28ED2A5F9
:100D1000C2A6C2A5740312040D740512040D740951
:100D200012040D741012040D740512040D754E009A
:100D3000754D27754C10D2A6D28E020DA212182D19
:100D4000C28ED2A5C2A6C2A5740312040D740112EC
:100D5000040D74C712040D741412040D74011204EE
:100D60000D754E00754D13754C88D2A6D28E121893
:100D70002DC28ED2A5C2A6C2A5740312040D74059D
:100D800012040D740912040D741012040D7405126E
:100D9000040D754E00754D27754C10D2A6D28E02EB
:100DA0000DA275F064E53B95F0E5F0600D75F0C8B7
:100DB000E53B95F0E5F060028003020CB675F06447
:100DC000E53B84E5F0941450276025E475F064E574
:100DD0003B84E5F0940A401575F064E53B84E5F04A
:100DE000940A6000E5F0941440000211B1020FB1C2
:100DF000E53B75F06484E5F075F00A84B4023412C2
:100E0000182DC28ED2A5C2A6C2A5740312040D74F9
:100E10000312040D74EF12040D74D012040D740348
:100E200012040D754E00754D27754C10D2A6D28E4A
:100E3000020FAEB4033412182DC28ED2A5C2A6C2C0
:100E4000A5740312040D740412040D741612040D1B
:100E500074E012040D740412040D754E00754D23D8
:100E6000754C28D2A6D28E020FAEB4043412182DBF
:100E7000C28ED2A5C2A6C2A5740312040D740412B8
:100E8000040D743D12040D74F012040D7404120468
:100E90000D754E00754D1F754C40D2A6D28E020FB7
:100EA000AEB4053412182DC28ED2A5C2A6C2A57446
:100EB0000312040D740412040D745112040D74789D
:100EC00012040D740412040D754E00754D23754CFB
:100ED00028D2A6D28E020FAEB4063412182DC28EBE
:100EE000D2A5C2A6C2A5740312040D740412040D87
:100EF000747412040D74A012040D740412040D75A0
:100F00004E00754D27754C10D2A6D28E020FAEB48E
:100F1000073412182DC28ED2A5C2A6C2A574031220
:100F2000040D740412040D749B12040D74B01204A9
:100F30000D740412040D754E00754D32754CC8D2F7
:100F4000A6D28E020FAEB4083412182DC28ED2A5CE
:100F5000C2A6C2A5740312040D740412040D74C653
:100F600012040D74A812040D740412040D754E00C1
:100F7000754D23754C28D2A6D28E020FAE12182DB5
:100F8000C28ED2A5C2A6C2A5740312040D740412A7
:100F9000040D74ED12040D74B812040D74041204DF
:100FA0000D754E00754D1F754C40D2A6D28E020FA6
:100FB000B175F064E53B84E5F075F00A84E5F0B4C2
:100FC00000030211AEB4013412182DC28ED2A5C294
:100FD000A6C2A5740312040D740112040D749312B9
:100FE000040D748412040D740112040D754E007505
:100FF0004D36754CB0D2A6D28E0211AEB402341268
:10100000182DC28ED2A5C2A6C2A5740312040D74F7
:101010000112040D74C712040D741412040D74012E
:1010200012040D754E00754D13754C88D2A6D28EE4
:101030000211AEB4033412182DC28ED2A5C2A6C2BC
:10104000A5740312040D740112040D74D612040D5C
:10105000746812040D740112040D754E00754D2351
:10106000754C28D2A6D28E0211AEB4043412182DBB
:10107000C28ED2A5C2A6C2A5740312040D740112B9
:10108000040D74F412040D740012040D74011204A2
:101090000D754E00754D1B754C58D2A6D28E02119F
:1010A000AEB4053412182DC28ED2A5C2A6C2A57444
:1010B0000312040D740212040D740712040D7488D7
:1010C00012040D740212040D754E00754D1B754C03
:1010D00058D2A6D28E0211AEB4063412182DC28E8A
:1010E000D2A5C2A6C2A5740312040D740212040D87
:1010F000742612040D74C812040D740212040D75C6
:101100004E00754D1F754C40D2A6D28E0211AEB462
:10111000073412182DC28ED2A5C2A6C2A57403121E
:10112000040D740212040D743612040D7468120456
:101130000D740212040D754E00754D23754C28D2A6
:10114000A6D28E0211AEB4083412182DC28ED2A5CA
:10115000C2A6C2A5740312040D740212040D7457C2
:1011600012040D749C12040D740212040D754E00CD
:10117000754D1B754C58D2A6D28E0211AE12182D89
:10118000C28ED2A5C2A6C2A5740312040D740212A7
:10119000040D746912040D743012040D74021204EB
:1011A0000D754E00754D1F754C40D2A6D28E0213A0
:1011B000DC75F064E53B84E5F0B40A3412182DC206
:1011C0008ED2A5C2A6C2A5740312040D7402120425
:1011D0000D748412040D748812040D740212040D2F
:1011E000754E00754D17754C70D2A6D28E0213D96C
:1011F000B40B3412182DC28ED2A5C2A6C2A5740398
:1012000012040D740212040D749B12040D74F81272
:10121000040D740212040D754E00754D1F754C407F
:10122000D2A6D28E0213D9B40C3412182DC28ED28B
:10123000A5C2A6C2A5740312040D740212040D7493
:10124000B712040D745012040D740212040D754E81
:1012500000754D1F754C40D2A6D28E0213D9B40D25
:101260003412182DC28ED2A5C2A6C2A574031204D0
:101270000D740212040D74CE12040D74C012040D0C
:10128000740212040D754E00754D2E754CE0D2A6F9
:10129000D28E0213D9B40E3412182DC28ED2A5C22A
:1012A000A6C2A5740312040D740212040D74F51283
:1012B000040D74D012040D740212040D754E0075E5
:1012C0004D36754CB0D2A6D28E0213D9B40F34125B
:1012D000182DC28ED2A5C2A6C2A5740312040D7425
:1012E0000312040D742812040D749812040D740373
:1012F00012040D754E00754D23754C28D2A6D28E62
:101300000213D9B4103412182DC28ED2A5C2A6C2AF
:10131000A5740312040D740312040D744712040D16
:1013200074D812040D740312040D754E00754D32FD
:10133000754CC8D2A6D28E0213D9B4113412182D0E
:10134000C28ED2A5C2A6C2A5740312040D740312E4
:10135000040D747612040D74B812040D7403120493
:101360000D754E00754D2E754C20D2A6D28E0213EF
:10137000D9B4123412182DC28ED2A5C2A6C2A57439
:101380000312040D740312040D74A112040D74B041
:1013900012040D740312040D754E00754D27754C23
:1013A00010D2A6D28E0213D912182DC28ED2A5C287
:1013B000A6C2A5740312040D740312040D74C8129E
:1013C000040D74C012040D740312040D754E0075E3
:1013D0004D27754C10D2A6D28E0213DC020CB643F8
:1013E000CE9043CF90D2A1D2A5C2A0C2A653890F5E
:1013F000438910758DFC758B8C75F5FC75F38CD25B
:10140000ABD28E75A5A075A43A75AD8075AC0043BE
:10141000A440E5A420E6FB22C0E0E8540F443012CB
:10142000007ED0E02275F06484443012007EE5F046
:1014300075F00A84443012007EE5F0443012007EDC
:10144000227401120083C0027A02120039D002C055
:10145000E07401141200BFD0E0C083C082C0E090ED
:10146000037D1200B2D0E0D082D083C0E0740614B5
:101470001200BFD0E0C083C082C0E090038212009F
:10148000B2D0E0D082D083C0E0740A141200BFD082
:10149000E0C083C082C0E09003841200B2D0E0D0EC
:1014A00082D083C0E07401141200BDD0E0C083C0BC
:1014B00082C0E09003761200B2D0E0D082D08322C6
:1014C000C0E07405141200BFD0E0C000A8391214A7
:1014D00018D000C0E07407141200BFD0E0C000A80C
:1014E000381200C4D00022C0E07401141200BFD032
:1014F000E0C083C082C0E09003601200B2D0E0D0B0
:1015000082D083C0E07406141200BFD0E0E534122C
:101510001425C0E0740A141200BFD0E0C083C0825A
:10152000C0E09003661200B2D0E0D082D083C0E069
:10153000740E141200BFD0E0E535121425C0E0741B
:1015400001141200BDD0E0C083C082C0E090036BE4
:101550001200B2D0E0D082D083C0E0740614120032
:10156000BDD0E0E536121425C0E0740A141200BDA7
:10157000D0E0C083C082C0E09003711200B2D0E01E
:10158000D082D083C0E0740E141200BDD0E0E537E5
:1015900012142522C0E0740E141200BFD0E0C00067
:1015A000A846121418D000C000A8451200C4D000EC
:1015B00022740F1200837480120083745712007E0D
:1015C000C0027AFA120039D002746512007EC0029D
:1015D0007AFA120039D002746C12007EC0027AFAD4
:1015E000120039D002746312007EC0027AFA12002F
:1015F00039D002746F12007EC0027AFA120039D01C
:1016000002746D12007EC0027AFA120039D00274A0
:101610006512007EC0027AFA120039D002742112DB
:10162000007EC0027AFA120039D002742012007EC5
:10163000C0027AFA120039D002746012007EC00231
:101640007AFA120039D00274EF12007EC0027AFAE0
:10165000120039D002742F12007E121808121808D6
:10166000740C12008322C0A8C2AF75D108907F808D
:10167000E534F0A3E535F0A3E536F0A3E537F0A3B4
:101680007455F0A374AAF0A375D10043D24075D16C
:101690005075D1A075D10053D2BFD0A822C0A8C226
:1016A000AF75D108907F86E534F0A3E535F0A3E56A
:1016B00036F0A3E537F0A37444F0A374BBF0A37530
:1016C000D10043D24075D15075D1A075D10053D20D
:1016D000BFD0A822907F84E493F8A3B85548E49340
:1016E000F8A3B8AA41907F80E493F534A3E493F57E
:1016F00035A3E493F536A3E493F537A322907F8ACC
:10170000E493F8A3B8442CE493F8A3B8BB25907FE6
:1017100086E493F534A3E493F535A3E493F536A377
:10172000E493F537A32275348275353C7536DC7544
:10173000371E2275349675354B7536E6753723227C
:10174000740112008320C5FDC0027A32120039D024
:101750000220C5EC30C5FD0218F122C297780112B3
:1017600003F478801203F4E95403F54B785512031F
:10177000F4894AD297C0027A0A120039D002AE4ADE
:10178000AF4B22753D00753E00753F007540007DF2
:101790006412175B7544007543008F428E4112013D
:1017A000B5121840DDEB7541647542007543007554
:1017B00044001202F775414E75420B7543007544A3
:1017C0000012026A75411075422775430075440086
:1017D0001202F775411675420075430075440012F8
:1017E00001B5853D3B1200F0121594C000A84612C9
:1017F00000DAD000C000A8451200DAD000740D1243
:10180000047E740A12047E22C0027AFA120039D0D1
:1018100002C0027AFA120039D002C0027AFA12002B
:1018200039D002C0027AFA120039D00222C0027AFC
:10183000FA120039D002C0027AFA120039D002221C
:10184000784AD8FE22C0E0C0D0E54C454D454E60F8
:101850001C74FF154CB54C07154DB54D02154ED2F5
:10186000A612040D2480F5AD43A440800CC28ED294
:10187000A5C2A675AD8043A440D0D0D0E03275C8D3
:101880000075CDA975CC9A75CBA975CA9AE4F530C7
:10189000F531F532D2ADD2CAC20222C2CFB290C067
:1018A000E0C0D00530E53070020531C3E54F95301A
:1018B000E55095319290E530B4E831E531B4032C30
:1018C000D2000532E532B40505D201E4F532E4F583
:1018D00030F531300216E5382401D4F538B4600A09
:1018E000753800E5392401D4F539053AD0D0D0E077
:1018F0003275817F12187E1200881204661213DF7F
:1019000075E60075E700D2AFC204754F0075500050
:101910007533007553001216D41215B1754F00754A
:1019200050001214E712052A1204861204AF1204A2
:10193000D81205011205462085E2C0027A32120053
:1019400039D0022085D63085FD753301753A00D235
:1019500002C28ED2A5C2A6C2A5740312040D7418C9
:1019600012040D74CB12040D74A812040D74181215
:10197000040D754E02754D0F754C58D2A6D28E12BD
:101980001808753800753900753A00121441C0E026
:101990007407141200BDD0E0C083C082C0E0900381
:1019A000C71200B2D0E0D082D083754FE8755003E3
:1019B00030043312182DC28ED2A5C2A6C2A574035C
:1019C00012040D740012040D740012040D742D1213
:1019D000040D740012040D754E00754D4E754C20AB
:1019E000D2A6D28E803612182DC28ED2A5C2A6C221
:1019F000A5740312040D740512040D745712040D1E
:101A0000743012040D740512040D754E00754DEA04
:101A1000754C60D2A6D28E80030218F112052A12EC
:101A200014C012178312057FE53B953450146012E1
:101A30004000E53B943250E4E53A943C50DB60D9F9
:101A400040DA753302753A00121441C0E07407148D
:101A50001200BDD0E0C083C082C0E09003D112006C
:101A6000B2D0E0D082D083754FC8755000300433B7
:101A700012182DC28ED2A5C2A6C2A5740312040DDF
:101A8000740012040D744412040D74DD12040D74FC
:101A90000012040D754E00754D4E754C20D2A6D225
:101AA0008E803112182DC28ED2A5C2A6C2A5740393
:101AB00012040D740612040D741A12040D748012AF
:101AC000040D740612040D754E00754D9C754C4046
:101AD000D2A6D28E12052A1214C012178312057FC5
:101AE0008000E53A9535500240EA753A03121441F8
:101AF000C0E07407141200BDD0E0C083C082C0E013
:101B00009003D61200B2D0E0D082D083754FE87532
:101B1000500330043312182DC28ED2A5C2A6C2A51E
:101B2000740312040D740012040D748B12040D74EE
:101B3000CA12040D740012040D754E00754D7575B2
:101B40004C30D2A6D28E803112182DC28ED2A5C2B0
:101B5000A6C2A5740312040D740612040D74B61205
:101B6000040D74C012040D740612040D754E007538
:101B70004D75754C30D2A6D28E12052A12178312DB
:101B800014C012057F8000E53B953650046002408A
:101B9000E8753A04753A00121441C0E07407141253
:101BA00000BDD0E0C083C082C0E09003E01200B26C
:101BB000D0E0D082D083754FC87550003004331206
:101BC000182DC28ED2A5C2A6C2A5740312040D742C
:101BD0000012040D74F012040D746312040D7400ED
:101BE00012040D754E00754D59754CD8D2A6D28E83
:101BF000803112182DC28ED2A5C2A6C2A5740312BE
:101C0000040D741912040D748E12040D74F812046C
:101C10000D741912040D754E00754D75754C30D24A
:101C2000A6D28E12052A1214C012178312057F80C5
:101C300000E53A9537500240EA753A00021C3FC26F
:101C400087121441C083C082C0E09003E71200B243
:101C5000D0E0D082D083754F00755000300433122D
:101C6000182DC28ED2A5C2A6C2A5740312040D748B
:101C70000112040D744812040D749A12040D7401BB
:101C800012040D754E00754D6B754C6CD2A6D28E3C
:101C9000803312182DC28ED2A5C2A6C2A57403121B
:101CA000040D741912040D74F012040D74A01204C2
:101CB0000D741912040D754E00754DEA754C60D205
:101CC000A6D28EB29112052A1214C01217831205E1
:101CD0007F8000E53B943C50EC60EA4000C28ED22D
:101CE000A5C2A6C2A5740312040D741612040D74C5
:101CF000BC12040D745012040D741612040D754EAE
:101D000002754D0F754C58D2A6D28E121808753A2E
:091D100000753300D2910218F1B4
:00000001FF
