:030000000209E909
:0100030032CA
:01000B0032C2
:0100130032BA
:03001B000209389F
:0100230032AA
:03002B0002098E39
:10002E00C00078B10000D8FCD00022C000C0017919
:10003E002D78A6D8FED9FADAF6D001D00022D2B3A6
:10004E0012002EC2B322A2E792B7A2E692B6A2E5A2
:10005E0092B5A2E492B412004C12002EA2E392B713
:10006E00A2E292B6A2E192B5A2E092B412004C22A4
:10007E00D2B2020054C2B2020054C2B374331200A0
:10008E008374331200837432120083742812008337
:10009E00740C1200837401120083C0027A021200E3
:1000AE0039D00222E493600612007EA380F6224429
:1000BE00404480020083C0E0E8C4540F4430120074
:1000CE007EE8540F443012007ED0E022C0E0E8C437
:1000DE00540F4430120505E8540F4430120505D074
:0200EE00E0220E
:1000F000C0E0C0D0C000C001C002E4F544F545F541
:1001000046F547F5487A20E53FA2E77904783CE6D2
:1001100033F608D9FA79057844E636D4F608D9F9E1
:10012000DAE5D002D001D000D0D0D0E022C0E0C0CB
:10013000D0C000C001C002E4F544F545F546F547DE
:10014000F5487A20E53FA2E77904783CE633F608E3
:10015000D9FA79057844C0D0E6243320E70224D0C8
:1001600020E30224FDD0D033F608D9EADAD6D00253
:10017000D001D000D0D0D0E022C0E0C0D0C000C0BC
:1001800001C0027A207905C37848E613C0D030E771
:100190000224D030E30224FDF618D0D0D9EC790443
:1001A000783FE613F618D9FADADBD002D001D00096
:1001B000D0D0D0E022C0E0C0D0E53C2540F53CE501
:1001C0003D3541F53DE53E3542F53EE53F3543F5EC
:1001D0003FD0D0D0E022C0E0C0D0C3E53C9540F590
:1001E0003CE53D9541F53DE53E9542F53EE53F95C3
:1001F00043F53FD0D0D0E022C0E0C0D0C3E53C956D
:1002000040E53D9541E53E9542E53F95439203D05B
:10021000D0D0E022C0E0C0D0C3E540953CE5419598
:100220003DE542953EE543953F9203D0D0D0E02294
:10023000C0E0C0D0C203C3E540953C7014E54195D1
:100240003D700EE542953E7008E543953F7002D241
:1002500003D0D0D0E0221202302003030202142285
:100260001202302003030201F822C0E0C0F0C0D027
:10027000C000C001C002C003E53C8540F0A4F8A95D
:10028000F0E53D8540F0A429F9E435F0FAE53C8538
:1002900041F0A429F9E5F03AFAE433FBE53E854064
:1002A000F0A42AFAE5F03BFBE53D8541F0A42AFAEB
:1002B000E5F03BFBE53C8542F0A42AFAE5F03BFB88
:1002C000E53F8540F0A42BFBE53E8541F0A42BFBE8
:1002D000E53D8542F0A42BFBE53C8543F0A42BFBD8
:1002E0008B3F8A3E893D883CD003D002D001D000AC
:1002F000D0D0D0F0D0E022C0E0C0D0C000C001C05B
:1003000002C003C0047C20E4F8F9FAFBC3E53C33E7
:10031000F53CE53D33F53DE53E33F53EE53F33F550
:100320003FE833F8E933F9EA33FAEB33FBC3E895F6
:1003300040E99541EA9542EB95434013E89540F832
:10034000E99541F9EA9542FAEB9543FB433C01DC20
:10035000BBD004D003D002D001D000D0D0D0E02256
:1003600000002D001C880044DD004B31008BCA00CA
:1003700091D600CC5800DBEC00F06300F652014847
:100380009A01938401DC6802D52D030E970332AAEB
:100390000360B403AF4904149A0456F7046550058A
:1003A000308305756C001C5B002855000654004026
:1003B0009900060C003A82000F940014770005EFB4
:1003C000005248004AEA0048E400F8C500396A00D3
:1003D0002413002E0A004E9500655100425D000E68
:0703E0005900CB330044E992
:1003E70053546D703A0053546D3A0052546D703A3D
:1003F7000052546D3A0053746174653E00546D6544
:100407003E003A00546D703E005265666C6F77206F
:1004170054656D70657261747572653A00526566F0
:100427006C6F772054696D653A00536F616B205488
:10043700696D653A00536F616B2054656D70657225
:1004470061747572653A0052616D702D536F616BFF
:1004570000536F616B0052616D702D5065616B00C9
:100467005265666C6F7700436F6F6C696E6700D279
:1004770095C29422C0E079007A08E833F89296D2C0
:1004870094A295E933F9C294DAF0D0E02233929638
:10049700D294A295C29492E0339296D294A295C236
:1004A7009492E0339296D294A295C29492E03392BA
:1004B70096D294A295C29492E0339296D294A29542
:1004C700C29492E0339296D294A295C29492E0336A
:1004D7009296D294A295C29492E0339296D294A225
:1004E70095C29492E02279DE78A6D8FED9FA43879E
:1004F70080759852759B00759AF4759B1E223099EA
:10050700FDC299F59922208218C0027A3212003969
:10051700D00220820C3082FD208004153580020530
:100527003522208318C0027A32120039D002208384
:100537000C3083FD2080041534800205342220848A
:1005470018C0027A32120039D00220840C3084FDA0
:1005570020800415378002053722208618C0027ACA
:1005670032120039D00220860C3086FD2080041517
:1005770036800205362220C512C0027A32120039AF
:10058700D00220C50630C5FD12087522300105C20C
:100597000102059C22E53B94645002402675F064F5
:1005A700E53B849401600A75F064E53B849402603E
:1005B7000002060E0205BE75F064E53B84E5F060B7
:1005C700CB700075F064E53B84E5F094145011E4BA
:1005D70075F064E53B84E5F0940A401CE4020605E7
:1005E700E53B75F06484E5F075F00A84E5F0600298
:1005F700700602060E02060B02060E02060B020624
:100607000E02060B02059353CECE43CF31D295D2BD
:1006170080C294C2A653890F438910758DFC758BD0
:100627001575F5FC75F315D2ABD28E75A5A075A41B
:100637003A75AD8075AC0043A440C28ED280C2A685
:10064700C28074031204947400120494744B12044D
:100657009474311204947400120494754D00754C0F
:1006670040754B99D2A6D28EC0E0E8540F443012A1
:10067700007ED0E02275F06484443012007EE5F0FD
:1006870075F00A84443012007EE5F0443012007E93
:10069700227401120083C0027A02120039D002C00C
:1006A700E07401141200BFD0E0C083C082C0E090A4
:1006B70004041200B2D0E0D082D083C0E0740614E4
:1006C7001200BFD0E0C083C082C0E09004091200CE
:1006D700B2D0E0D082D083C0E0740A141200BFD039
:1006E700E0C083C082C0E090040B1200B2D0E0D01B
:1006F70082D083C0E07401141200BDD0E0C083C073
:1007070082C0E09003FD1200B2D0E0D082D08322F5
:10071700C0E07405141200BFD0E0C000A83912066B
:100727006FD000C0E07407141200BFD0E0C000A86B
:10073700381200C4D00022C0E07401141200BFD0E8
:10074700E0C083C082C0E09003E71200B2D0E0D0DF
:1007570082D083C0E07406141200BFD0E0E53412E3
:10076700067CC0E0740A141200BFD0E0C083C082C8
:10077700C0E09003ED1200B2D0E0D082D083C0E099
:10078700740E141200BFD0E0E53512067CC0E07489
:1007970001141200BDD0E0C083C082C0E09003F214
:1007A7001200B2D0E0D082D083C0E07406141200E9
:1007B700BDD0E0E53612067CC0E0740A141200BD15
:1007C700D0E0C083C082C0E09003F81200B2D0E04E
:1007D700D082D083C0E0740E141200BDD0E0E5379C
:1007E70012067C22C0E0740E141200BFD0E0C000D5
:1007F700A84512066FD000C000A8441200C4D0005C
:1008070022C0A8C2AF75D108907F80E534F0A3E578
:1008170035F0A3E536F0A3E537F0A37455F0A374DC
:10082700AAF0A375D10043D24075D15075D1A075F8
:10083700D10053D2BFD0A822907F84E493F8A3B805
:10084700551FE493F8A3B8AA18907F80E493F53472
:10085700A3E493F535A3E493F536A3E493F537A31F
:100867002275348275353C7536DC75371E22740166
:10087700120083C28720C5FDC0027A32120039D028
:100887000220C5EA30C5FD0209E92230007DC20019
:10089700C297780112047B788012047BE95403F530
:1008A7004A785512047B8949D297C0027A0A120006
:1008B70039D00285493C854A3D753E00753F007534
:1008C70040167541007542007543001201B51200CC
:1008D700F01207EBC000A8481200DAD000C000A849
:1008E700471200DAD000C000A8461200DAD000C0D4
:1008F70000A8451200DAD000C000A8441200DAD0E0
:1009070000740D120505740A12050522C0027AFA51
:10091700120039D002C0027AFA120039D002C0029E
:100927007AFA120039D002C0027AFA120039D002DC
:1009370022C0E0C0D0E54B454C454D601E74FF1505
:100947004BB54B07154CB54C02154DD2A612049466
:10095700F5802480F5AD43A440800AC28EC2A675F7
:10096700AD8043A440D0D0D0E03275C80075CDA982
:1009770075CC9A75CBA975CA9AE4F530F531F5327D
:10098700D2ADD2CAC20222C2CFB290C0E0C0D00557
:1009970030E53070020531C3E54E9530E54F9531AE
:1009A7009290E530B4E836E531B40331D200053230
:1009B700E532B40505D201E4F532E4F530F531301E
:1009C700021BE5382401D4F538B4600A753800E510
:1009D700392401D4F539E53A2401D4F53AD0D0D0F9
:1009E700E03275817F1209711204761200881204B1
:1009F700ED75E60075E700D2AF12083F754E00753A
:100A07004F00753300754E00754F0012073E1205F3
:100A17007D12050D120529120545120561120808F8
:100A270012060E2085DFC0027A32120039D002206A
:100A370085D33085FD753301753A00D202753800CC
:100A4700753900120698C0E07407141200BDD0E093
:100A5700C083C082C0E090044E1200B2D0E0D082C2
:100A6700D083754EE8754F0312057D1207171208DC
:100A7700922085F4C0027A32120039D0022085E82C
:100A87003085FD7533028000753A00120698C0E084
:100A97007407141200BDD0E0C083C082C0E0900488
:100AA700581200B2D0E0D082D083754EC8754F007F
:100AB70012057D1207172085F7C0027A3212003916
:100AC700D0022085EB3085FD753A00020AD5D28722
:100AD700120698C0E07407141200BDD0E0C083C0AE
:100AE70082C0E090045D1200B2D0E0D082D083755E
:100AF7004EE8754F0312057D1207172085F7C002D0
:100B07007A32120039D0022085EB3085FD753A0024
:100B1700020B1A120698C0E07407141200BDD0E049
:100B2700C083C082C0E09004671200B2D0E0D082D8
:100B3700D083754EC8754F0012057D1207172085A3
:100B4700F7C0027A32120039D0022085EB3085FDDA
:100B5700753A00020B5DC287120698C083C082C037
:100B6700E090046E1200B2D0E0D082D083754E00C0
:100B7700754F0012057D1207172085F7C0027A32DC
:100B8700120039D0022085EB3085FD753A007533A8
:040B9700000209E966
:00000001FF
