:0300000002118169
:0100030032CA
:01000B0032C2
:0100130032BA
:03001B000210D5FB
:0100230032AA
:03002B0002112B94
:10002E00C00078B10000D8FCD00022C000C0017919
:10003E002D78A6D8FED9FADAF6D001D00022D2B3A6
:10004E0012002EC2B322A2E792B7A2E692B6A2E5A2
:10005E0092B5A2E492B412004C12002EA2E392B713
:10006E00A2E292B6A2E192B5A2E092B412004C22A4
:10007E00D2B2020054C2B2020054C2B374331200A0
:10008E008374331200837432120083742812008337
:10009E00740C1200837401120083C0027A021200E3
:1000AE0039D00222E493600612007EA380F6224429
:1000BE00404480020083C0E0E8C4540F4430120074
:1000CE007EE8540F443012007ED0E022C0E0E8C437
:1000DE00540F4430120505E8540F4430120505D074
:0200EE00E0220E
:1000F000C0E0C0D0C000C001C002E4F545F546F53F
:1001000047F548F5497A20E540A2E77904783DE6CD
:1001100033F608D9FA79057845E636D4F608D9F9E0
:10012000DAE5D002D001D000D0D0D0E022C0E0C0CB
:10013000D0C000C001C002E4F545F546F547F548DA
:10014000F5497A20E540A2E77904783DE633F608E0
:10015000D9FA79057845C0D0E6243320E70224D0C7
:1001600020E30224FDD0D033F608D9EADAD6D00253
:10017000D001D000D0D0D0E022C0E0C0D0C000C0BC
:1001800001C0027A207905C37849E613C0D030E770
:100190000224D030E30224FDF618D0D0D9EC790443
:1001A0007840E613F618D9FADADBD002D001D00095
:1001B000D0D0D0E022C0E0C0D0E53D2541F53DE5FE
:1001C0003E3542F53EE53F3543F53FE5403544F5E4
:1001D00040D0D0D0E022C0E0C0D0C3E53D9541F58D
:1001E0003DE53E9542F53EE53F9543F53FE54095BB
:1001F00044F540D0D0D0E022C0E0C0D0C3E53D956A
:1002000041E53E9542E53F9543E54095449203D054
:10021000D0D0E022C0E0C0D0C3E541953DE5429595
:100220003EE543953FE54495409203D0D0D0E0228F
:10023000C0E0C0D0C203C3E541953D7014E54295CE
:100240003E700EE543953F7008E54495407002D23C
:1002500003D0D0D0E0221202302003030202142285
:100260001202302003030201F822C0E0C0F0C0D027
:10027000C000C001C002C003E53D8541F0A4F8A95B
:10028000F0E53E8541F0A429F9E435F0FAE53D8535
:1002900042F0A429F9E5F03AFAE433FBE53F854161
:1002A000F0A42AFAE5F03BFBE53E8542F0A42AFAE9
:1002B000E5F03BFBE53D8543F0A42AFAE5F03BFB86
:1002C000E5408541F0A42BFBE53F8542F0A42BFBE4
:1002D000E53E8543F0A42BFBE53D8544F0A42BFBD4
:1002E0008B408A3F893E883DD003D002D001D000A8
:1002F000D0D0D0F0D0E022C0E0C0D0C000C001C05B
:1003000002C003C0047C20E4F8F9FAFBC3E53D33E6
:10031000F53DE53E33F53EE53F33F53FE54033F54A
:1003200040E833F8E933F9EA33FAEB33FBC3E895F5
:1003300041E99542EA9543EB95444013E89541F82D
:10034000E99542F9EA9543FAEB9544FB433D01DC1C
:10035000BBD004D003D002D001D000D0D0D0E02256
:1003600000002D001C880044DD004B31008BCA00CA
:1003700091D600CC5800DBEC00F06300F652014847
:100380009A01938401DC6802D52D030E970332AAEB
:100390000360B403AF4904149A0456F7046550058A
:1003A000308305756C001C5B002855000654004026
:1003B0009900060C003A82000F940014770005EFB4
:1003C000005248004AEA0048E400F8C500396A00D3
:1003D0002413002E0A004E9500655100425D000E68
:0703E0005900CB330044E992
:1003E70053546D703A0053546D3A0052546D703A3D
:1003F7000052546D3A0053746174653E00546D6544
:100407003E003A00546D703E005265666C6F77206F
:1004170054656D70657261747572653A00526566F0
:100427006C6F772054696D653A00536F616B205488
:10043700696D653A00536F616B2054656D70657225
:1004470061747572653A0052616D702D536F616BFF
:1004570000536F616B0052616D702D5065616B00C9
:100467005265666C6F7700436F6F6C696E6700D279
:1004770095C29422C0E079007A08E833F89296D2C0
:1004870094A295E933F9C294DAF0D0E0223392A42A
:10049700D2A0A2A1C2A092E03392A4D2A0A2A1C2EC
:1004A700A092E03392A4D2A0A2A1C2A092E033927C
:1004B700A4D2A0A2A1C2A092E03392A4D2A0A2A1EA
:1004C700C2A092E03392A4D2A0A2A1C2A092E0332C
:1004D70092A4D2A0A2A1C2A092E03392A4D2A0A2D9
:1004E700A1C2A092E02279DE78A6D8FED9FA438786
:1004F70080759852759B00759AF4759B1E223099EA
:10050700FDC299F59922208218C0027A3212003969
:10051700D00220820C3082FD20810415358002052F
:100527003522208318C0027A32120039D002208384
:100537000C3083FD20810415348002053422208489
:1005470018C0027A32120039D00220840C3084FDA0
:1005570020810415378002053722208618C0027AC9
:1005670032120039D00220860C3086FD2081041516
:1005770036800205362220C518C0027A32120039A9
:10058700D00220C50C30C5FD754F00755000120F05
:10059700D02220860FC0027A32120039D00220867C
:1005A700033086FD22300104C201800122E53B941D
:1005B700645002400280030206BA75F064E53B848A
:1005C7009401600A75F064E53B849402606512103B
:1005D700BDC28ED2A5C2A6C2A5740312049474012B
:1005E7001204947493120494748412049474011280
:1005F7000494754E00754D36754CB0D2A6D28E1246
:1006070010BDC28ED2A5C2A6C2A5740312049474EB
:100617000512049474091204947410120494740556
:10062700120494754E00754D27754C10D2A6D28EC4
:1006370002069F1210BDC28ED2A5C2A6C2A5740320
:10064700120494740112049474C71204947414125B
:1006570004947401120494754E00754D13754C88FB
:10066700D2A6D28E1210BDC28ED2A5C2A6C2A574C2
:1006770003120494740512049474091204947410F8
:100687001204947405120494754E00754D27754C29
:1006970010D2A6D28E02069F75F064E53B95F0E571
:1006A700F0600D75F0C8E53B95F0E5F0600280035A
:1006B7000205B375F064E53B84E5F09414502760B8
:1006C70025E475F064E53B84E5F0940A401575F080
:1006D70064E53B84E5F0940A6000E5F0941440007B
:1006E700020AAE0208AEE53B75F06484E5F075F0EA
:1006F7000A84B402341210BDC28ED2A5C2A6C2A506
:100707007403120494740312049474EF120494741F
:10071700D01204947403120494754E00754D277516
:100727004C10D2A6D28E0208ABB403341210BDC24D
:100737008ED2A5C2A6C2A57403120494740412042F
:1007470094741612049474E01204947404120494BA
:10075700754E00754D23754C28D2A6D28E0208AB74
:10076700B404341210BDC28ED2A5C2A6C2A57403AA
:100777001204947404120494743D12049474F012D5
:1007870004947404120494754E00754D1F754C4003
:10079700D2A6D28E0208ABB405341210BDC28ED2D7
:1007A700A5C2A6C2A5740312049474041204947417
:1007B7005112049474781204947404120494754EBC
:1007C70000754D23754C28D2A6D28E0208ABB4060D
:1007D700341210BDC28ED2A5C2A6C2A574031204DC
:1007E700947404120494747412049474A0120494FC
:1007F7007404120494754E00754D27754C10D2A6DB
:10080700D28E0208ABB407341210BDC28ED2A5C275
:10081700A6C2A574031204947404120494749B1260
:10082700049474B01204947404120494754E007501
:100837004D32754CC8D2A6D28E0208ABB40834121A
:1008470010BDC28ED2A5C2A6C2A5740312049474A9
:100857000412049474C612049474A81204947404C1
:10086700120494754E00754D23754C28D2A6D28E6E
:100877000208AB1210BDC28ED2A5C2A6C2A57403D0
:10088700120494740412049474ED12049474B8124C
:1008970004947404120494754E00754D1F754C40F2
:1008A700D2A6D28E0208AE75F064E53B84E5F075FA
:1008B700F00A84E5F0B40003020AABB40134121065
:1008C700BDC28ED2A5C2A6C2A57403120494740138
:1008D700120494749312049474841204947401128D
:1008E7000494754E00754D36754CB0D2A6D28E0263
:1008F7000AABB402341210BDC28ED2A5C2A6C2A5DD
:100907007403120494740112049474C71204947447
:10091700141204947401120494754E00754D1375E6
:100927004C88D2A6D28E020AABB403341210BDC2D1
:100937008ED2A5C2A6C2A574031204947401120430
:100947009474D61204947468120494740112049473
:10095700754E00754D23754C28D2A6D28E020AAB70
:10096700B404341210BDC28ED2A5C2A6C2A57403A8
:10097700120494740112049474F41204947400120F
:1009870004947401120494754E00754D1B754C58F0
:10099700D2A6D28E020AABB405341210BDC28ED2D3
:1009A700A5C2A6C2A5740312049474021204947417
:1009B7000712049474881204947402120494754EF6
:1009C70000754D1B754C58D2A6D28E020AABB406E1
:1009D700341210BDC28ED2A5C2A6C2A574031204DA
:1009E700947402120494742612049474C812049422
:1009F7007402120494754E00754D1F754C40D2A6B3
:100A0700D28E020AABB407341210BDC28ED2A5C271
:100A1700A6C2A574031204947402120494743612C5
:100A2700049474681204947402120494754E007549
:100A37004D23754C28D2A6D28E020AABB4083412C5
:100A470010BDC28ED2A5C2A6C2A5740312049474A7
:100A5700021204947457120494749C12049474023E
:100A6700120494754E00754D1B754C58D2A6D28E44
:100A7700020AAB1210BDC28ED2A5C2A6C2A57403CC
:100A87001204947402120494746912049474301258
:100A970004947402120494754E00754D1F754C40F2
:100AA700D2A6D28E020CD975F064E53B84E5F0B48A
:100AB7000A341210BDC28ED2A5C2A6C2A5740312F3
:100AC70004947402120494748412049474881204B3
:100AD700947402120494754E00754D17754C70D2BC
:100AE700A6D28E020CD6B40B341210BDC28ED2A57C
:100AF700C2A6C2A574031204947402120494749BD0
:100B070012049474F81204947402120494754E003B
:100B1700754D1F754C40D2A6D28E020CD6B40C343C
:100B27001210BDC28ED2A5C2A6C2A5740312049428
:100B3700740212049474B7120494745012049474D7
:100B470002120494754E00754D1F754C40D2A6D203
:100B57008E020CD6B40D341210BDC28ED2A5C2A619
:100B6700C2A57403120494740212049474CE12047E
:100B77009474C01204947402120494754E00754D57
:100B87002E754CE0D2A6D28E020CD6B40E341210BB
:100B9700BDC28ED2A5C2A6C2A57403120494740264
:100BA70012049474F512049474D01204947402120B
:100BB7000494754E00754D36754CB0D2A6D28E0290
:100BC7000CD6B40F341210BDC28ED2A5C2A6C2A5D0
:100BD7007403120494740312049474281204947412
:100BE700981204947403120494754E00754D23757E
:100BF7004C28D2A6D28E020CD6B410341210BDC225
:100C07008ED2A5C2A6C2A57403120494740312045B
:100C170094744712049474D81204947403120494BD
:100C2700754E00754D32754CC8D2A6D28E020CD6C1
:100C3700B411341210BDC28ED2A5C2A6C2A57403C8
:100C47001204947403120494747612049474B81200
:100C570004947403120494754E00754D2E754C2040
:100C6700D2A6D28E020CD6B412341210BDC28ED2C6
:100C7700A5C2A6C2A5740312049474031204947443
:100C8700A112049474B01204947403120494754E60
:100C970000754D27754C10D2A6D28E020CD61210B5
:100CA700BDC28ED2A5C2A6C2A57403120494740352
:100CB70012049474C812049474C012049474031236
:100CC7000494754E00754D27754C10D2A6D28E022E
:100CD7000CD90205B343CE9043CF90D2A1D2A5C27F
:100CE700A0C2A653890F438910758DFC758B8C752F
:100CF700F5FC75F38CD2ABD28E75A5A075A43A75A9
:100D0700AD8075AC0043A440E5A420E6FB22C0E01B
:100D1700E8540F443012007ED0E02275F06484441A
:100D27003012007EE5F075F00A84443012007EE54B
:100D3700F0443012007E227401120083C0027A024E
:100D4700120039D002C0E07401141200BFD0E0C015
:100D570083C082C0E09004041200B2D0E0D082D0F9
:100D670083C0E07406141200BFD0E0C083C082C005
:100D7700E09004091200B2D0E0D082D083C0E074C2
:100D87000A141200BFD0E0C083C082C0E090040BF9
:100D97001200B2D0E0D082D083C0E07401141200F8
:100DA700BDD0E0C083C082C0E09003FD1200B2D086
:100DB700E0D082D08322C0E07405141200BFD0E0D7
:100DC700C000A839120D15D000C0E0740714120036
:100DD700BFD0E0C000A8381200C4D00022C0E07421
:100DE70001141200BFD0E0C083C082C0E09003E7C7
:100DF7001200B2D0E0D082D083C0E0740614120093
:100E0700BFD0E0E534120D22C0E0740A141200BF0F
:100E1700D0E0C083C082C0E09003ED1200B2D0E002
:100E2700D082D083C0E0740E141200BFD0E0E53545
:100E3700120D22C0E07401141200BDD0E0C083C0BF
:100E470082C0E09003F21200B2D0E0D082D083C01B
:100E5700E07406141200BDD0E0E536120D22C0E0A2
:100E6700740A141200BDD0E0C083C082C0E09003B2
:100E7700F81200B2D0E0D082D083C0E0740E141212
:100E870000BDD0E0E537120D2222C0E0740E141227
:100E970000BFD0E0C000A846120D15D000C000A8C2
:100EA700451200C4D00022740F1200837480120010
:100EB70083745712007EC0027AFA120039D0027486
:100EC7006512007EC0027AFA120039D002746C12E1
:100ED700007EC0027AFA120039D002746312007ED3
:100EE700C0027AFA120039D002746F12007EC00273
:100EF7007AFA120039D002746D12007EC0027AFAB3
:100F0700120039D002746512007EC0027AFA12000C
:100F170039D002742112007EC0027AFA120039D049
:100F270002742012007EC0027AFA120039D00274CD
:100F37006012007EC0027AFA120039D00274EF12F2
:100F4700007EC0027AFA120039D002742F12007E96
:100F5700121098121098740C12008322C0A8C2AF06
:100F670075D108907F80E534F0A3E535F0A3E53629
:100F7700F0A3E537F0A37455F0A374AAF0A375D1D5
:100F87000043D24075D15075D1A075D10053D2BF5F
:100F9700D0A822907F84E493F8A3B8551FE493F870
:100FA700A3B8AA18907F80E493F534A3E493F535AA
:100FB700A3E493F536A3E493F537A322753482753A
:100FC700353C7536DC75371E22740112008320C547
:100FD700FDC0027A32120039D00220C5EC30C5FDBF
:100FE70002118122C297780112047B788012047B58
:100FF700E95403F54B785512047B894AD297C0020E
:101007007A0A120039D002AE4AAF4B22753D0075FD
:101017003E00753F007540007D64120FEB7544007C
:101027007543008F428E411201B51210D0DDEB756A
:1010370041647542007543007544001202F775411B
:101047004E75420B75430075440012026A754110D4
:101057007542277543007544001202F775411675EE
:1010670042007543007544001201B5853D3B1200EF
:10107700F0120E91C000A8461200DAD000C000A8F6
:10108700451200DAD000740D120505740A12050521
:1010970022C0027AFA120039D002C0027AFA12008C
:1010A70039D002C0027AFA120039D002C0027AFAA5
:1010B700120039D00222C0027AFA120039D002C0D7
:1010C700027AFA120039D00222784AD8FE22C0E00A
:1010D700C0D0E54C454D454E601C74FF154CB54CD2
:1010E70007154DB54D02154ED2A61204942480F56E
:1010F700AD43A440800CC28ED2A5C2A675AD804375
:10110700A440D0D0D0E03275C80075CDA975CC9A6F
:1011170075CBA975CA9AE4F530F531F532D2ADD25F
:10112700CAC20222C2CFB290C0E0C0D00530E530BB
:1011370070020531C3E54F9530E55095319290E542
:1011470030B4E831E531B4032CD2000532E532B4CE
:101157000505D201E4F532E4F530F531300216E544
:10116700382401D4F538B4600A753800E53924010C
:10117700D4F539053AD0D0D0E03275817F12110EFF
:101187001200881204ED120CDC75E60075E700D238
:10119700AF120F9A754F00755000753300120EAEDF
:1011A700120DE412057D12050D12052912054512CF
:1011B7000561120F632085E8C0027A32120039D028
:1011C700022085DC3085FD753301753A00D2027542
:1011D7003800753900753A00120D3EC0E0740714E7
:1011E7001200BDD0E0C083C082C0E090044E120060
:1011F700B2D0E0D082D083754FE87550031210BD8E
:10120700C28ED2A5C2A6C2A574031204947400129A
:1012170004947400120494742D120494740012043C
:1012270094754E00754D4E754C20D2A6D28E800314
:1012370002118112057D120DBD1210131205ACE5C6
:101247003B9534501460124000E53B943250E4E57E
:101257003A943C50DB60D940DA753302753A001294
:101267000D3EC0E07407141200BDD0E0C083C082F9
:10127700C0E09004581200B2D0E0D082D083754FFE
:10128700C87550001210BDC28ED2A5C2A6C2A574E1
:10129700031204947400120494744412049474DDC9
:1012A7001204947400120494754E00754D4E754CDB
:1012B70020D2A6D28E12057D120DBD121013120573
:1012C700ACE53A9535500240EC753A03120D3EC035
:1012D700E07407141200BDD0E0C083C082C0E09064
:1012E700045D1200B2D0E0D082D083754FE875500C
:1012F700031210BDC28ED2A5C2A6C2A574031204E2
:10130700947400120494748B12049474CA12049493
:101317007400120494754E00754D75754C30D2A645
:10132700D28E12057D121013120DBD1205ACE53BCE
:1013370095365004600240EA753A04753A00120D7A
:101347003EC0E07407141200BDD0E0C083C082C065
:10135700E09004671200B2D0E0D082D083754FC806
:101367007550001210BDC28ED2A5C2A6C2A57403C5
:10137700120494740012049474F0120494746312A7
:1013870004947400120494754E00754D59754CD829
:10139700D2A6D28E12057D120DBD1210131205AC06
:1013A700E53A9537500240EC753A000213B5C2870B
:1013B700120D3EC083C082C0E090046E1200B2D00E
:1013C700E0D082D083754F007550001210BDC28ED9
:1013D700D2A5C2A6C2A57403120494740112049480
:1013E7007448120494749A12049474011204947544
:1013F7004E00754D6B754C6CD2A6D28E12057D12C0
:101407000DBD1210131205ACE53B943C50EE60EC99
:0B1417004000753A007533000211819F
:00000001FF
