:030000000209EA08
:0100030032CA
:01000B0032C2
:0100130032BA
:03001B000209399E
:0100230032AA
:03002B0002098F38
:10002E00C00078B10000D8FCD00022C000C0017919
:10003E002D78A6D8FED9FADAF6D001D00022D2B3A6
:10004E0012002EC2B322A2E792B7A2E692B6A2E5A2
:10005E0092B5A2E492B412004C12002EA2E392B713
:10006E00A2E292B6A2E192B5A2E092B412004C22A4
:10007E00D2B2020054C2B2020054C2B374331200A0
:10008E008374331200837432120083742812008337
:10009E00740C1200837401120083C0027A021200E3
:1000AE0039D00222E493600612007EA380F6224429
:1000BE00404480020083C0E0E8C4540F4430120074
:1000CE007EE8540F443012007ED0E022C0E0E8C437
:1000DE00540F4430120505E8540F4430120505D074
:0200EE00E0220E
:1000F000C0E0C0D0C000C001C002E4F544F545F541
:1001000046F547F5487A20E53FA2E77904783CE6D2
:1001100033F608D9FA79057844E636D4F608D9F9E1
:10012000DAE5D002D001D000D0D0D0E022C0E0C0CB
:10013000D0C000C001C002E4F544F545F546F547DE
:10014000F5487A20E53FA2E77904783CE633F608E3
:10015000D9FA79057844C0D0E6243320E70224D0C8
:1001600020E30224FDD0D033F608D9EADAD6D00253
:10017000D001D000D0D0D0E022C0E0C0D0C000C0BC
:1001800001C0027A207905C37848E613C0D030E771
:100190000224D030E30224FDF618D0D0D9EC790443
:1001A000783FE613F618D9FADADBD002D001D00096
:1001B000D0D0D0E022C0E0C0D0E53C2540F53CE501
:1001C0003D3541F53DE53E3542F53EE53F3543F5EC
:1001D0003FD0D0D0E022C0E0C0D0C3E53C9540F590
:1001E0003CE53D9541F53DE53E9542F53EE53F95C3
:1001F00043F53FD0D0D0E022C0E0C0D0C3E53C956D
:1002000040E53D9541E53E9542E53F95439203D05B
:10021000D0D0E022C0E0C0D0C3E540953CE5419598
:100220003DE542953EE543953F9203D0D0D0E02294
:10023000C0E0C0D0C203C3E540953C7014E54195D1
:100240003D700EE542953E7008E543953F7002D241
:1002500003D0D0D0E0221202302003030202142285
:100260001202302003030201F822C0E0C0F0C0D027
:10027000C000C001C002C003E53C8540F0A4F8A95D
:10028000F0E53D8540F0A429F9E435F0FAE53C8538
:1002900041F0A429F9E5F03AFAE433FBE53E854064
:1002A000F0A42AFAE5F03BFBE53D8541F0A42AFAEB
:1002B000E5F03BFBE53C8542F0A42AFAE5F03BFB88
:1002C000E53F8540F0A42BFBE53E8541F0A42BFBE8
:1002D000E53D8542F0A42BFBE53C8543F0A42BFBD8
:1002E0008B3F8A3E893D883CD003D002D001D000AC
:1002F000D0D0D0F0D0E022C0E0C0D0C000C001C05B
:1003000002C003C0047C20E4F8F9FAFBC3E53C33E7
:10031000F53CE53D33F53DE53E33F53EE53F33F550
:100320003FE833F8E933F9EA33FAEB33FBC3E895F6
:1003300040E99541EA9542EB95434013E89540F832
:10034000E99541F9EA9542FAEB9543FB433C01DC20
:10035000BBD004D003D002D001D000D0D0D0E02256
:1003600000002D001C880044DD004B31008BCA00CA
:1003700091D600CC5800DBEC00F06300F652014847
:100380009A01938401DC6802D52D030E970332AAEB
:100390000360B403AF4904149A0456F7046550058A
:1003A000308305756C001C5B002855000654004026
:1003B0009900060C003A82000F940014770005EFB4
:1003C000005248004AEA0048E400F8C500396A00D3
:1003D0002413002E0A004E9500655100425D000E68
:0703E0005900CB330044E992
:1003E70053546D703A0053546D3A0052546D703A3D
:1003F7000052546D3A0053746174653E00546D6544
:100407003E003A00546D703E005265666C6F77206F
:1004170054656D70657261747572653A00526566F0
:100427006C6F772054696D653A00536F616B205488
:10043700696D653A00536F616B2054656D70657225
:1004470061747572653A0052616D702D536F616BFF
:1004570000536F616B0052616D702D5065616B00C9
:100467005265666C6F7700436F6F6C696E6700D279
:1004770095C29422C0E079007A08E833F89296D2C0
:1004870094A295E933F9C294DAF0D0E0223392A42A
:10049700D2A0A2A1C2A092E03392A4D2A0A2A1C2EC
:1004A700A092E03392A4D2A0A2A1C2A092E033927C
:1004B700A4D2A0A2A1C2A092E03392A4D2A0A2A1EA
:1004C700C2A092E03392A4D2A0A2A1C2A092E0332C
:1004D70092A4D2A0A2A1C2A092E03392A4D2A0A2D9
:1004E700A1C2A092E02279DE78A6D8FED9FA438786
:1004F70080759852759B00759AF4759B1E223099EA
:10050700FDC299F59922208218C0027A3212003969
:10051700D00220820C3082FD20840415358002052C
:100527003522208318C0027A32120039D002208384
:100537000C3083FD20840415348002053422208486
:1005470018C0027A32120039D00220840C3084FDA0
:1005570020840415378002053722208618C0027AC6
:1005670032120039D00220860C3086FD2084041513
:1005770036800205362220C518C0027A32120039A9
:10058700D00220C50C30C5FD754E00754F0012080E
:100597004722300105C2010205A222E53B946450BF
:1005A70002402375F064E53B849401600A75F064AA
:1005B700E53B84940260000205C175F064E53B8465
:1005C700E5F060CE700075F064E53B84E5F09414C7
:1005D7005011E475F064E53B84E5F0940A4019E4B2
:1005E700020602E53B75F06484E5F075F00A84E5E0
:1005F700F060027003020605020605020605020501
:100607009943CE9043CF90D2A1D2A5C2A0C2A65300
:10061700890F438910758DFD758B8975F5FD75F308
:1006270089D2ABD28E75A5A075A43A75AD8075AC8D
:100637000043A440E5A420E6FB22C0E0E8540F44B1
:100647003012007ED0E02275F06484443012007EC0
:10065700E5F075F00A84443012007EE5F04430126C
:10066700007E227401120083C0027A02120039D080
:1006770002C0E07401141200BFD0E0C083C082C082
:10068700E09004041200B2D0E0D082D083C0E074BE
:1006970006141200BFD0E0C083C082C0E0900409F6
:1006A7001200B2D0E0D082D083C0E0740A141200E6
:1006B700BFD0E0C083C082C0E090040B1200B2D06C
:1006C700E0D082D083C0E07401141200BDD0E0C036
:1006D70083C082C0E09003FD1200B2D0E0D082D088
:1006E7008322C0E07405141200BFD0E0C000A8390F
:1006F700120641D000C0E07407141200BFD0E0C05A
:1007070000A8381200C4D00022C0E07401141200FF
:10071700BFD0E0C083C082C0E09003E71200B2D030
:10072700E0D082D083C0E07406141200BFD0E0E5A9
:100737003412064EC0E0740A141200BFD0E0C08322
:10074700C082C0E09003ED1200B2D0E0D082D08327
:10075700C0E0740E141200BFD0E0E53512064EC09B
:10076700E07401141200BDD0E0C083C082C0E090E5
:1007770003F21200B2D0E0D082D083C0E074061436
:100787001200BDD0E0E53612064EC0E0740A14121E
:1007970000BDD0E0C083C082C0E09003F81200B271
:1007A700D0E0D082D083C0E0740E141200BDD0E038
:1007B700E53712064E22C0E0740E141200BFD0E0D7
:1007C700C000A845120641D000C000A8441200C4CA
:1007D700D00022C0A8C2AF75D108907F80E534F061
:1007E700A3E535F0A3E536F0A3E537F0A37455F09C
:1007F700A374AAF0A375D10043D24075D15075D127
:10080700A075D10053D2BFD0A822907F84E493F87B
:10081700A3B8551FE493F8A3B8AA18907F80E49370
:10082700F534A3E493F535A3E493F536A3E493F500
:1008370037A32275348275353C7536DC75371E2231
:10084700740112008320C5FDC0027A32120039D02C
:100857000220C5EC30C5FD0209EA22C297780112D1
:10086700047B788012047BE95403F54A7855120417
:100877007B8949D297C0027A0A120039D002AE4961
:10088700AF4A22753C00753D00753E00753F007DFF
:10089700641208627543007542008F418E40120151
:1008A700B5120934DDEB754064754100754200757A
:1008B70043001202F77540007541407542007543C9
:1008C7000012026A7540AD75414B754201754300D0
:1008D7001202F77540167541007542007543001204
:1008E70001B5853C3B1200F01207BDC000A84512B8
:1008F70000DAD000C000A8441200DAD000740D124C
:100907000505740A12050522C0027AFA120039D0C9
:1009170002C0027AFA120039D002C0027AFA120033
:1009270039D002C0027AFA120039D00222784AD8A6
:10093700FE22C0E0C0D0E54B454C454D601C74FF1E
:10094700154BB54B07154CB54C02154DD2A61204E5
:10095700942480F5AD43A440800CC28ED2A5C2A6D4
:1009670075AD8043A440D0D0D0E03275C80075CDB6
:10097700A975CC9A75CBA975CA9AE4F530F531F506
:1009870032D2ADD2CAC20222C2CFB290C0E0C0D02A
:100997000530E53070020531C3E54E9530E54F95DA
:1009A700319290E530B4E836E531B40331D2000531
:1009B70032E532B40505D201E4F532E4F530F5311C
:1009C70030021BE5382401D4F538B4600A753800C5
:1009D700E5392401D4F539E53A2401D4F53AD0D0E4
:1009E700D0E03275817F1209721200881204ED126D
:1009F700060875E60075E700D2AF120811C28ED25D
:100A0700A5C2A6C2A57403120494740112049474B7
:100A1700F412049474001204947401120494754D32
:100A270000754C1B754B58D2A6D28E754E00754F6C
:100A37000075330012071012057D12050D120529E6
:100A47001205451205611207DA2085E8C0027A32DD
:100A5700120039D0022085DC3085FD753301753AE7
:100A670000D20275380075390012066AC0E07407B3
:100A7700141200BDD0E0C083C082C0E090044E12C3
:100A870000B2D0E0D082D083754EE8754F03800363
:100A97000209EA12057D1206E912088AE53B953438
:100AA700500E600C4000E53A943C50E460E240E3AD
:100AB700753302753A0012066AC0E0740714120013
:100AC700BDD0E0C083C082C0E09004581200B2D00D
:100AD700E0D082D083754EC8754F0012057D12068F
:100AE700E912088AE53A9535500240EF753A031244
:100AF700066AC0E07407141200BDD0E0C083C0824C
:100B0700C0E090045D1200B2D0E0D082D083754E71
:100B1700E8754F0312057D12088A1206E9E53B9531
:100B2700365004600240ED753A04753A0012066AC1
:100B3700C0E07407141200BDD0E0C083C082C0E0DB
:100B47009004671200B2D0E0D082D083754EC8758A
:100B57004F0012057D1206E912088AE53A953750CB
:100B67000240EF753A00020B70C28712066AC08313
:100B7700C082C0E090046E1200B2D0E0D082D08371
:100B8700754E00754F0012057D1206E912088AE5B9
:100B97003B943C50F160EF4000753A00753300021A
:020BA70009EA59
:00000001FF
