:03000000020831C2
:0100030032CA
:01000B0032C2
:0100130032BA
:03001B0002078E4B
:0100230032AA
:03002B000207E2E7
:10002E00C00078B10000D8FCD00022C000C0017919
:10003E002D78A6D8FED9FADAF6D001D00022D2B3A6
:10004E0012002EC2B322A2E792B7A2E692B6A2E5A2
:10005E0092B5A2E492B412004C12002EA2E392B713
:10006E00A2E292B6A2E192B5A2E092B412004C22A4
:10007E00D2B2020054C2B2020054C2B374331200A0
:10008E008374331200837432120083742812008337
:10009E00740C1200837401120083C0027A021200E3
:1000AE0039D00222E493600612007EA380F6224429
:1000BE00404480020083C0E0E8C4540F4430120074
:1000CE007EE8540F443012007ED0E022C0E0E8C437
:1000DE00540F443012047EE8540F443012047ED084
:0200EE00E0220E
:1000F000C0E0C0D0C000C001C002E4F545F546F53F
:1001000047F548F5497A20E540A2E77904783DE6CD
:1001100033F608D9FA79057845E636D4F608D9F9E0
:10012000DAE5D002D001D000D0D0D0E022C0E0C0CB
:10013000D0C000C001C002E4F545F546F547F548DA
:10014000F5497A20E540A2E77904783DE633F608E0
:10015000D9FA79057845C0D0E6243320E70224D0C7
:1001600020E30224FDD0D033F608D9EADAD6D00253
:10017000D001D000D0D0D0E022C0E0C0D0C000C0BC
:1001800001C0027A207905C37849E613C0D030E770
:100190000224D030E30224FDF618D0D0D9EC790443
:1001A0007840E613F618D9FADADBD002D001D00095
:1001B000D0D0D0E022C0E0C0D0E53D2541F53DE5FE
:1001C0003E3542F53EE53F3543F53FE5403544F5E4
:1001D00040D0D0D0E022C0E0C0D0C3E53D9541F58D
:1001E0003DE53E9542F53EE53F9543F53FE54095BB
:1001F00044F540D0D0D0E022C0E0C0D0C3E53D956A
:1002000041E53E9542E53F9543E54095449202D055
:10021000D0D0E022C0E0C0D0C3E541953DE5429595
:100220003EE543953FE54495409202D0D0D0E02290
:10023000C0E0C0D0C202C3E541953D7014E54295CF
:100240003E700EE543953F7008E54495407002D23C
:1002500002D0D0D0E0221202302002030202142287
:100260001202302002030201F822C0E0C0F0C0D028
:10027000C000C001C002C003E53D8541F0A4F8A95B
:10028000F0E53E8541F0A429F9E435F0FAE53D8535
:1002900042F0A429F9E5F03AFAE433FBE53F854161
:1002A000F0A42AFAE5F03BFBE53E8542F0A42AFAE9
:1002B000E5F03BFBE53D8543F0A42AFAE5F03BFB86
:1002C000E5408541F0A42BFBE53F8542F0A42BFBE4
:1002D000E53E8543F0A42BFBE53D8544F0A42BFBD4
:1002E0008B408A3F893E883DD003D002D001D000A8
:1002F000D0D0D0F0D0E022C0E0C0D0C000C001C05B
:1003000002C003C0047C20E4F8F9FAFBC3E53D33E6
:10031000F53DE53E33F53EE53F33F53FE54033F54A
:1003200040E833F8E933F9EA33FAEB33FBC3E895F5
:1003300041E99542EA9543EB95444013E89541F82D
:10034000E99542F9EA9543FAEB9544FB433D01DC1C
:10035000BBD004D003D002D001D000D0D0D0E02256
:1003600053546D703A0053546D3A0052546D703AC4
:100370000052546D3A0053746174653E00546D65CB
:100380003E003A00546D703E005265666C6F7720F7
:1003900054656D70657261747572653A0052656678
:1003A0006C6F772054696D653A00536F616B205410
:1003B000696D653A00536F616B2054656D706572AD
:1003C00061747572653A0052616D702D536F616B87
:1003D00000536F616B0052616D702D5065616B0051
:1003E0005265666C6F7700436F6F6C696E6700D201
:1003F00095C29422C0E079007A08E833F89296D248
:1004000094A295E933F9C294DAF0D0E022339296BF
:10041000D294A295C29492E0339296D294A295C2BD
:100420009492E0339296D294A295C29492E0339241
:1004300096D294A295C29492E0339296D294A295C9
:10044000C29492E0339296D294A295C29492E033F1
:100450009296D294A295C29492E0339296D294A2AC
:1004600095C29492E02279DE78A6D8FED9FA438725
:1004700080759852759B00759AF4759B1E22309971
:10048000FDC299F59922208218C0027A32120039F1
:10049000D00220820C3082FD2080041536800205B7
:1004A0003622208318C0027A32120039D00220830B
:1004B0000C3083FD20800415358002053522208410
:1004C00018C0027A32120039D00220840C3084FD28
:1004D00020800415388002053822208618C0027A50
:1004E00032120039D00220860C3086FD208004159F
:1004F00037800205372220C512C0027A3212003935
:10050000D00220C50630C5FD1206422275F0648473
:10051000443012007EE5F075F00A84443012007E0B
:10052000E5F0443012007E22C0E0E8540F4430125F
:10053000007ED0E0227401120083C0027A02120011
:1005400039D002C0E07401141200BFD0E0C083C0F3
:1005500082C0E090037D1200B2D0E0D082D083C090
:10056000E07406141200BFD0E0C083C082C0E090E7
:1005700003821200B2D0E0D082D083C0E0740A14AB
:100580001200BFD0E0C083C082C0E090038412009C
:10059000B2D0E0D082D083C0E07401141200BDD08C
:1005A000E0C083C082C0E09003761200B2D0E0D0F9
:1005B00082D08322C0E07405141200BFD0E0C000D6
:1005C000A83A120528D000C0E07407141200BFD06A
:1005D000E0C000A8391200C4D0002275D108907F75
:1005E00080E535F0A3E536F0A3E537F0A3E538F074
:1005F000A37455F0A374AAF0A375D10043D240753B
:10060000D15075D1A075D10053D2BF22907F84E420
:1006100093F8A3B8551FE493F8A3B8AA18907F8065
:10062000E493F535A3E493F536A3E493F537A3E417
:1006300093F538A32275358275363C7537DC7538ED
:100640001E227401120083C28720C5FDC0027A32C7
:10065000120039D00220C5EA30C5FD02083122C29D
:100660009778011203F478801203F4E95403F54BF0
:1006700078551203F4894AD297854A3D854B3E75D9
:100680003F007540007541E87542037543007544AD
:100690000012026A754129754200754300754400D5
:1006A0001202F71200F0C000A8451200DAD0007460
:1006B0000D12047E740A12047ED0E022C0E07401A0
:1006C000141200BFD0E0C083C082C0E0900360126B
:1006D00000B2D0E0D082D083C0E07406141200BF14
:1006E000D0E0E53512050CC0E0740A141200BFD04A
:1006F000E0C083C082C0E09003661200B2D0E0D0B8
:1007000082D083C0E0740E141200BFD0E0E5361230
:10071000050CC0E07401141200BDD0E0C083C0829B
:10072000C0E090036B1200B2D0E0D082D083C0E072
:100730007406141200BDD0E0E53712050CC0E07459
:100740000A141200BDD0E0C083C082C0E0900371E3
:100750001200B2D0E0D082D083C0E0740E14120038
:10076000BDD0E0E53812050C22C0027AFA12003939
:10077000D002C0027AFA120039D002C0027AFA120C
:100780000039D002C0027AFA120039D00222C0E049
:10079000C0D0E54C454D454E601E74FF154CB54C20
:1007A00007154DB54D02154ED2A612040DF5802445
:1007B00080F5AD43A440800AC28EC2A675AD8043C9
:1007C000A440D0D0D0E03275C80075CDA975CC9AC0
:1007D00075CBA975CA9AE4F530F531D2ADD2CAC24B
:1007E0000122C2CFB290C0E0C0D00530E530700227
:1007F0000531C3E5329530E53395319290E530B45B
:10080000E82AE531B40325D200E4F530F5313001B2
:100810001BE5392401D4F539B4600A753900E53A8D
:100820002401D4F53AE53B2401D4F53BD0D0D0E007
:100830003275817F1207C71203EF12008812046617
:1008400075E60075E700D2AF12060C7532007533FD
:10085000007532007533001206BC1204F6120486CD
:100860001204A21204BE1204DA1205DB2085E2C0D3
:10087000027A32120039D0022085D63085FD7534D7
:1008800001753B00D201753900753A00120535C07B
:10089000E07407141200BDD0E0C083C082C0E090B5
:1008A00003C71200B2D0E0D082D0837532E875332E
:1008B000031204F61205B42085F7C0027A32120042
:1008C00039D0022085EB3085FD7534028000753B00
:1008D00000120535C0E07407141200BDD0E0C083DB
:1008E000C082C0E09003D11200B2D0E0D082D083A9
:1008F0007532C87533001204F61205B42085F7C0AE
:10090000027A32120039D0022085EB3085FD753B2A
:1009100000020914D287120535C0E07407141200D2
:10092000BDD0E0C083C082C0E09003D61200B2D038
:10093000E0D082D0837532E87533031204F61205D5
:10094000B42085F7C0027A32120039D0022085EB3C
:100950003085FD753B00020959120535C0E074076A
:10096000141200BDD0E0C083C082C0E09003E0124A
:1009700000B2D0E0D082D0837532C8753300120443
:10098000F61205B42085F7C0027A32120039D0027F
:100990002085EB3085FD753B0002099CC28712055E
:1009A00035C083C082C0E09003E71200B2D0E0D02F
:1009B00082D0837532007533001204F61205B4201C
:1009C00085F7C0027A32120039D0022085EB3085DB
:0709D000FD753B0002083138
:00000001FF
