:030000000208777C
:0100030032CA
:01000B0032C2
:0100130032BA
:03001B000207C613
:0100230032AA
:03002B0002081CAC
:10002E00C00078B10000D8FCD00022C000C0017919
:10003E002D78A6D8FED9FADAF6D001D00022D2B3A6
:10004E0012002EC2B322A2E792B7A2E692B6A2E5A2
:10005E0092B5A2E492B412004C12002EA2E392B713
:10006E00A2E292B6A2E192B5A2E092B412004C22A4
:10007E00D2B2020054C2B2020054C2B374331200A0
:10008E008374331200837432120083742812008337
:10009E00740C1200837401120083C0027A021200E3
:1000AE0039D00222E493600612007EA380F6224429
:1000BE00404480020083C0E0E8C4540F4430120074
:1000CE007EE8540F443012007ED0E022C0E0E8C437
:1000DE00540F443012047EE8540F443012047ED084
:0200EE00E0220E
:1000F000C0E0C0D0C000C001C002E4F544F545F541
:1001000046F547F5487A20E53FA2E77904783CE6D2
:1001100033F608D9FA79057844E636D4F608D9F9E1
:10012000DAE5D002D001D000D0D0D0E022C0E0C0CB
:10013000D0C000C001C002E4F544F545F546F547DE
:10014000F5487A20E53FA2E77904783CE633F608E3
:10015000D9FA79057844C0D0E6243320E70224D0C8
:1001600020E30224FDD0D033F608D9EADAD6D00253
:10017000D001D000D0D0D0E022C0E0C0D0C000C0BC
:1001800001C0027A207905C37848E613C0D030E771
:100190000224D030E30224FDF618D0D0D9EC790443
:1001A000783FE613F618D9FADADBD002D001D00096
:1001B000D0D0D0E022C0E0C0D0E53C2540F53CE501
:1001C0003D3541F53DE53E3542F53EE53F3543F5EC
:1001D0003FD0D0D0E022C0E0C0D0C3E53C9540F590
:1001E0003CE53D9541F53DE53E9542F53EE53F95C3
:1001F00043F53FD0D0D0E022C0E0C0D0C3E53C956D
:1002000040E53D9541E53E9542E53F95439203D05B
:10021000D0D0E022C0E0C0D0C3E540953CE5419598
:100220003DE542953EE543953F9203D0D0D0E02294
:10023000C0E0C0D0C203C3E540953C7014E54195D1
:100240003D700EE542953E7008E543953F7002D241
:1002500003D0D0D0E0221202302003030202142285
:100260001202302003030201F822C0E0C0F0C0D027
:10027000C000C001C002C003E53C8540F0A4F8A95D
:10028000F0E53D8540F0A429F9E435F0FAE53C8538
:1002900041F0A429F9E5F03AFAE433FBE53E854064
:1002A000F0A42AFAE5F03BFBE53D8541F0A42AFAEB
:1002B000E5F03BFBE53C8542F0A42AFAE5F03BFB88
:1002C000E53F8540F0A42BFBE53E8541F0A42BFBE8
:1002D000E53D8542F0A42BFBE53C8543F0A42BFBD8
:1002E0008B3F8A3E893D883CD003D002D001D000AC
:1002F000D0D0D0F0D0E022C0E0C0D0C000C001C05B
:1003000002C003C0047C20E4F8F9FAFBC3E53C33E7
:10031000F53CE53D33F53DE53E33F53EE53F33F550
:100320003FE833F8E933F9EA33FAEB33FBC3E895F6
:1003300040E99541EA9542EB95434013E89540F832
:10034000E99541F9EA9542FAEB9543FB433C01DC20
:10035000BBD004D003D002D001D000D0D0D0E02256
:1003600053546D703A0053546D3A0052546D703AC4
:100370000052546D3A0053746174653E00546D65CB
:100380003E003A00546D703E005265666C6F7720F7
:1003900054656D70657261747572653A0052656678
:1003A0006C6F772054696D653A00536F616B205410
:1003B000696D653A00536F616B2054656D706572AD
:1003C00061747572653A0052616D702D536F616B87
:1003D00000536F616B0052616D702D5065616B0051
:1003E0005265666C6F7700436F6F6C696E6700D201
:1003F00095C29422C0E079007A08E833F89296D248
:1004000094A295E933F9C294DAF0D0E022339296BF
:10041000D294A295C29492E0339296D294A295C2BD
:100420009492E0339296D294A295C29492E0339241
:1004300096D294A295C29492E0339296D294A295C9
:10044000C29492E0339296D294A295C29492E033F1
:100450009296D294A295C29492E0339296D294A2AC
:1004600095C29492E02279DE78A6D8FED9FA438725
:1004700080759852759B00759AF4759B1E22309971
:10048000FDC299F59922208218C0027A32120039F1
:10049000D00220820C3082FD2080041535800205B8
:1004A0003522208318C0027A32120039D00220830C
:1004B0000C3083FD20800415348002053422208412
:1004C00018C0027A32120039D00220840C3084FD28
:1004D00020800415378002053722208618C0027A52
:1004E00032120039D00220860C3086FD208004159F
:1004F00036800205362220C512C0027A3212003937
:10050000D00220C50630C5FD12071222C0E0E85413
:100510000F443012007ED0E02275F0648444301223
:10052000007EE5F075F00A84443012007EE5F04468
:100530003012007E227401120083C0027A0212007F
:1005400039D002C0E07401141200BFD0E0C083C0F3
:1005500082C0E090037D1200B2D0E0D082D083C090
:10056000E07406141200BFD0E0C083C082C0E090E7
:1005700003821200B2D0E0D082D083C0E0740A14AB
:100580001200BFD0E0C083C082C0E090038412009C
:10059000B2D0E0D082D083C0E07401141200BDD08C
:1005A000E0C083C082C0E09003761200B2D0E0D0F9
:1005B00082D08322C0E07405141200BFD0E0C000D6
:1005C000A83912050CD000C0E07407141200BFD087
:1005D000E0C000A8381200C4D00022C0E0740114AA
:1005E0001200BFD0E0C083C082C0E0900360120060
:1005F000B2D0E0D082D083C0E07406141200BFD025
:10060000E0E534120519C0E0740A141200BFD0E00E
:10061000C083C082C0E09003661200B2D0E0D082F6
:10062000D083C0E0740E141200BFD0E0E53512058F
:1006300019C0E07401141200BDD0E0C083C082C0B4
:10064000E090036B1200B2D0E0D082D083C0E0749F
:1006500006141200BDD0E0E536120519C0E0740A98
:10066000141200BDD0E0C083C082C0E090037112BC
:1006700000B2D0E0D082D083C0E0740E141200BD6E
:10068000D0E0E53712051922C0E0740E141200BF45
:10069000D0E0C000A84512050CD000C000A844124C
:1006A00000C4D00022C0A8C2AF75D108907F80E5F9
:1006B00034F0A3E535F0A3E536F0A3E537F0A374F5
:1006C00055F0A374AAF0A375D10043D24075D15060
:1006D00075D1A075D10053D2BFD0A822907F84E4F9
:1006E00093F8A3B8551FE493F8A3B8AA18907F8095
:1006F000E493F534A3E493F535A3E493F536A3E44A
:1007000093F537A32275348275353C7536DC753721
:100710001E227401120083C28720C5FDC0027A32F6
:10072000120039D00220C5EA30C5FD020877223018
:10073000006EC200C29778011203F478801203F4AD
:10074000E95403F54A78551203F48949D297C00257
:100750007A0A120039D00285493C854A3D753E002F
:10076000753F001200F0120688C000A8481200DA97
:10077000D000C000A8471200DAD000C000A846127E
:1007800000DAD000C000A8451200DAD000C000A8EE
:10079000441200DAD000740D12047E740A12047E32
:1007A00022C0027AFA120039D002C0027AFA12008C
:1007B00039D002C0027AFA120039D002C0027AFAA5
:1007C000120039D00222C0E0C0D0E54B454C454D67
:1007D000601E74FF154BB54B07154CB54C02154DFB
:1007E000D2A612040DF5802480F5AD43A440800A02
:1007F000C28EC2A675AD8043A440D0D0D0E0327581
:10080000C80075CDA975CC9A75CBA975CA9AE4F5BF
:1008100030F531F532D2ADD2CAC20222C2CFB29087
:10082000C0E0C0D00530E53070020531C3E54E951B
:1008300030E54F95319290E530B4E836E531B403B8
:1008400031D2000532E532B40505D201E4F532E4D7
:10085000F530F53130021BE5382401D4F538B460A9
:100860000A753800E5392401D4F539E53A2401D474
:10087000F53AD0D0D0E03275817F1207FF1203EF36
:1008800012008812046675E60075E700D2AF120602
:10089000DC754E00754F00753300754E00754F00C6
:1008A0001205DB1204F61204861204A21204BE1210
:1008B00004DA1206A52085E2C0027A32120039D08D
:1008C000022085D63085FD753301753A00D2027558
:1008D0003800753900120535C0E07407141200BDE8
:1008E000D0E0C083C082C0E09003C71200B2D0E065
:1008F000D082D083754EE8754F031204F61205B40A
:1009000012072F2085F4C0027A32120039D002205B
:1009100085E83085FD7533028000753A0012053593
:10092000C0E07407141200BDD0E0C083C082C0E0F4
:100930009003D11200B2D0E0D082D083754EC8753A
:100940004F001204F61205B42085F7C0027A321265
:100950000039D0022085EB3085FD753A0002096030
:10096000D287120535C0E07407141200BDD0E0C074
:1009700083C082C0E09003D61200B2D0E0D082D013
:1009800083754EE8754F031204F61205B42085F7FF
:10099000C0027A32120039D0022085EB3085FD7515
:1009A0003A000209A5120535C0E07407141200BD13
:1009B000D0E0C083C082C0E09003E01200B2D0E07B
:1009C000D082D083754EC8754F001204F61205B45C
:1009D0002085F7C0027A32120039D0022085EB3030
:1009E00085FD753A000209E8C287120535C083C04B
:1009F00082C0E09003E71200B2D0E0D082D08375CD
:100A00004E00754F001204F61205B42085F7C0029F
:100A10007A32120039D0022085EB3085FD753A001C
:060A2000753300020877A7
:00000001FF
